S01200004D792050726F6A6563742E7372656355
S113000050050020810100007D0100007D010000F9
S113001000000000000000000000000000000000DC
S11300200000000000000000000000007D0100004E
S113003000000000000000007D010000DD2400003D
S11300407D0100007D0100007D0100007D010000B4
S1130050751B00007D0100007D0100007D01000092
S11300607D0100007D0100007D0100007D01000094
S11300707D0100007D010000F11F00007D010000F2
S1130080F12200007D0100007D0100007D010000DF
S11300907D0100007D0100007D0100006119000068
S11300A0B91600007D0100007D0100007D01000003
S11300B00000000010B5064C2378002B07D1054B37
S11300C0002B02D0044800E000BF0123237010BDC0
S11300D014000020000000007C2B0000084B10B529
S11300E0002B03D00749084800E000BF0748036815
S11300F0002B00D110BD064B002BFBD09847F9E72D
S113010000000000180000207C2B00007C2B000065
S11301100000000070B5C4680B1D9B001D5901262A
S1130120B5431D51637ADB09FCD1C06804318900F1
S11301300B58064C23401203C024A40122401A4346
S11301400A50437ADB09FCD170BDC046FFCFFFFFE4
S113015010B5014B984710BD15010000826A516823
S1130160136992689B18013B1340C85A70470000FA
S113017010B5014B984710BD5D080000FEE7000074
S1130180F8B5234A234B9A4209D0224B204A03E074
S113019011681960043304321F498B42F8D31F4B92
S11301A002E000221A6004331D4A9342F9D31D4A27
S11301B0FF211D4B8B439360FD3990235B001B4A49
S11301C0D1501B4AD3780325AB4302242343D37075
S11301D0D3780C27BB4308263343D370154B987B45
S11301E030229043202210439873997BB9433143C2
S11301F099739A7BAA4322439A730F4A51688023C6
S11302000B4353600D4B98470D4B9847FEE7C04690
S11302107C2B0000000000201400002014000020AB
S11302204C01002000ED00E00000000000700041DF
S1130230005000410048004100400041DD2800001A
S113024089250000F0B5060003210022002000E00B
S11302500139002913DB01238B405BB21A4355B2E9
S1130260EAB25700064C3C5BB442F1D90322521A5D
S1130270012494402043C0B26B40DAB2E8E7F0BDF9
S11302802429000010B5154B9847154B1B78002BFB
S113029002D10022124B5A80114C227802239B1A5D
S11302A09B00984003006088184380B260802078E7
S11302B0013003210B4B9847C9B221702278D2B286
S11302C000210948094B98472378002B00D010BD22
S11302D0034B588880B2064B9847F8E74502000064
S11302E0300000207D28000098000020510100000B
S11302F0CD24000010B582B053425A4117490B78FF
S1130300DBB29A4013004A885A4092B24A800B7872
S1130310002B18D00B78013BDBB20B700F4A11781D
S1130320C9B201238B40190053880B439BB25380FD
S113033053886A4606321380012300210848094C79
S1130340A04702B010BD054C09232370608880B219
S1130350054B984700236380E0E7C0460000002077
S1130360D8000020290F00008502000010B582B0DB
S11303700C4C002120000C4B98470C4B5B886A46C0
S113038006321380012300212000094CA047094CA8
S1130390094A00212000094B98472000084B984740
S11303A002B010BDD8000020F10E000000000020B3
S11303B0290F000098000020F5020000150B000032
S11303C0ED0A000010B500210148024B984710BD0A
S11303D098000020450B00000022014B1A80704752
S11303E034000020084B1B78DBB27E2B05D9802219
S11303F01205C023DB055A61704780221205C02311
S1130400DB059A61F8E7C0469000002070B50F4BF9
S11304101A880F4B1B889A420CD3190008318A4260
S113042008DAD41A456B016C806B09180140685CCA
S11304300849085507339A4204D0044A1388013303
S1130440138070BD044B9847F7E7C0463400002082
S11304500400002090000020E5030000014B1880F8
S11304607047C0460400002070B50400054A02210C
S1130470054DA847054A00212000A8472000044B49
S1130480984770BDD9030000651300000D040000F7
S113049039130000F0B585B0244A116A80235B0249
S11304A00B431362224A234B5A80234D234E0023CD
S11304B00293234B01930124009400232A00214931
S11304C03000214FB8472A1D1023002130001F4D52
S11304D0A847C026F605042373601D4B1D4A9A6283
S11304E0C02212069A624220195CA14301252943C5
S11304F0C9B219541138195C0F27B9432943C9B239
S1130500195408217160144999629A6243215A5C12
S1130510A2432A43D2B25A541A5C34390A401021F5
S11305200A43D2B21A5405B0F0BDC04600040040DC
S11305301E400000000C004038000020AC000020E9
S1130540E400002000400042E90B00009D0C000084
S1130550004400410400004008000040F8B5CE46C5
S1130560474680B52F4A304B5A80C022D20580209E
S1130570400250602D4B2E4E9E622E49996250606F
S11305805027D95D04252943C9B2D9559061D95D55
S11305900124A1430120814648460143C9B2D955EB
S11305A0183FD95D0F208143D9558021890288469F
S11305B051609E62204999624146516051218C46A6
S11305C0595C2943C9B26046195441469161195C8A
S11305D0A14348460143C9B260461954D95D8C46CB
S11305E00F2160460840D8558020800350609E62E9
S11305F0124E9E62506055269F5D3D43EDB29D555F
S113060090619A5DA24348460243D2B29A553A2079
S11306101A5C114019540A4B98470CBC90469946F1
S1130620F8BDC04605400000000C004000440041F5
S113063000000240010002C0020002C0200002C00B
S113064015100000044A136A80210B431362034A05
S1130650034B5A807047C046000400401940000014
S1130660000C004030B50F4B5622995C0125A9437C
S113067001242143C9B299543B20195C473A914360
S113068003221143C9B2195457215A5CAA43224385
S1130690D2B25A541A5C48390A4030210A43D2B2C1
S11306A01A5430BD0044004110B582B0074B98473E
S11306B0002300931033064A143206490648074CB7
S11306C0A047074B984702B010BDC046450600003E
S11306D038000020001C0042FC0000209D12000095
S11306E065060000F0B5C64600B5C027FF05102317
S11306F07B60204B204A9A62C02636069E624421C3
S11307005A5C0125AA4301200243D2B25A54322230
S1130710995C0F24A046A1430143C9B299542021F6
S11307207960164999629E6245218C46595CA943B9
S11307300143C9B264461955995C363C21401024E2
S1130740A44664462143C9B299540E327A600C4AD5
S11307509A629E624622995CA9430143C9B29954A4
S113076033215A5C4446A2430243D2B25A5404BCD5
S11307709046F0BD004400411000004020000040BD
S113078040000040054A116A80239B020B43136218
S1130790034B044A5A80044A5A80704700040040BC
S11307A0000C00401F4000002040000010B5044B26
S11307B0984704490448054B9847054B984710BD92
S11307C0850700000044004298000020A90A0000A8
S11307D0E5060000044A116A8023DB020B4313621E
S11307E0024A034B5A807047000400402140000035
S11307F0000C004010B5034B984703490348044BD1
S1130800984710BDD507000000480042D8000020DA
S1130810A10E000010B5054A054B5A80054A136A1B
S113082002210B431362044B984710BD074000009C
S1130830000C004000040040C50F0000044A116A87
S113084080239B000B431362024A034B5A80704778
S1130850000400401A400000000C0040F8B5DE46D9
S113086057464E464546E0B5774B9847C022D205D9
S113087080235360754B76499962764D9D6247207B
S1130880195C0424A446A14319541C5C01218C4323
S11308901C548024E40154606F4898629D62546043
S11308A04E25585D04263043C0B258559461585DB6
S11308B08843585580200005906190608020C005D1
S11308C09862664898620D35585D88435855802073
S11308D04005906190608020C005986260489862ED
S11308E00135585D88435855982011508827D151B7
S11308F010305C4D1D50C0252D06AA461D50C02544
S1130900A8465D5D8D4346469D559425A846923D77
S113091046469551D551544D1D5055461D50C1253F
S1130920A9465D5D8D434E469D55D4514F4D1D5096
S113093055461D50454654513A355C5D6646B443B0
S11309405C555C5D8C430126B1464E463443E4B2AB
S11309505C55173D5C5D0F26B4430726B3465E46DF
S11309603443E4B25C5580242402D451404E1E50DA
S113097056461E5046469451CF24A2461C5D6646F8
S1130980B44356469C559C5D8C434E463443E4B276
S113099056469C555C5DC03EB34634407026B24614
S11309A056463443E4B25C558024A402D4518025D5
S11309B0ED051D502F4D1D5045465451D1241D5D4C
S11309C06646B5431D551D5D8D434E463543EDB218
S11309D01D55B8255C5D5E46344056463443E4B24A
S11309E05C558024E405D4511C50234C1C504046D3
S11309F08024E40514504A301A5C6446A2431A5415
S1130A001A5C8A4349460A43D2B21A54BF215A5C3B
S1130A10CF38824305200243D2B25A54174B984729
S1130A20174B9847174B9847174B9847174B9847BE
S1130A30174B9847174B9847174B98473CBC904621
S1130A409946A246AB46F8BDAD19000000440041EA
S1130A5080000240000002C000400240000800C0C4
S1130A60001000C0010000400200004000400040AF
S1130A7000800040020000C0004000C09504000057
S1130A805D050000A9060000AD070000F5070000A1
S1130A90150800003D080000E920000010B50369B6
S1130AA0002B00D0984710BD70B504000D0000283D
S1130AB011D000290DD0012036220849084B98474F
S1130AC029002000074B9847002801D1064B2360DA
S1130AD070BD0020F0E70020EEE7C0464429000086
S1130AE0DD130000B91500009D0A000010B50400D4
S1130AF0431E9841C0B252220349044B9847200038
S1130B00034B9847002010BD44290000DD1300006A
S1130B106D16000070B504000D001600431E9841C8
S1130B20C0B26B220549064B9847002D02D12661BD
S1130B30002070BD0D204042FBE7C0464429000060
S1130B40DD13000070B504000D00431E9841C0B2CF
S1130B507D220449044B984729002000034B984701
S1130B60002070BD44290000DD1300008116000040
S1130B7010B58369002B00D0984710BD10B5C36928
S1130B80002B00D0984710BDF0B583B005000E00CF
S1130B901100036A9A5D53009B18DC00836A9C462B
S1130BA06444271D01916B46197938000C4B984712
S1130BB028000C4B9847012807D9019B190A3800D3
S1130BC0074B9847A38A0133A382A38A0133A382E4
S1130BD02368002B02D031002800984703B0F0BDF1
S1130BE07D140000B7180000F0B5D64600B582B0F9
S1130BF00500019116001C0008AB1F7800280CD0DA
S1130C0000290CD0002A0CD0002F0CD0099B002BFB
S1130C1001D0012008E0002006E0002004E00020CC
S1130C2002E0002000E000203F221649164B9A46BD
S1130C309847621CFB0FD017BA425841C0B24022F9
S1130C401049D047002303E0FF22F2540133DBB202
S1130C50A342F9D92E622423EC540133EF54099BA7
S1130C60AB6201992800094B9847002805D1084B2D
S1130C70AB60084B2B60084B6B6002B004BC92461F
S1130C80F0BDC04660290000DD13000049180000D3
S1130C90890B0000710B00007D0B0000F0B583B0E0
S1130CA007000C0000920193002819D0002A19D0E3
S1130CB0002B19D10020244E66223100234DA84771
S1130CC02423FB5C0020A3424041C0B267223100D0
S1130CD0A847396A0B5DFF2B2CD10026002307E0BF
S1130CE00020E8E70020E6E70120E4E70133DBB277
S1130CF02422BA5C934205D8CA5CFF2AF6D0013696
S1130D00F6B2F3E72523FB5C9E4216D873009B19C9
S1130D10DD00BB6A58190430019A00990C4B9847BE
S1130D2000280DD13B6A1E55BB6A5B1900229A82CA
S1130D3003B0F0BD0D204042FAE71C204042F7E723
S1130D400D204042F4E7C04660290000DD13000096
S1130D50E5130000F8B506000C000B4D431E984146
S1130D60C0B283222900094FB8472423F35C002032
S1130D70A3424041C0B284222900B8472100300078
S1130D80034B98470020F8BD60290000DD130000E4
S1130D90A9180000F0B5CE4600B504000D001700F8
S1130DA01E00431E9841C0B29C221649164B994618
S1130DB098472423E35C0020AB424041C0B29D220B
S1130DC01049C847236A5B5D012F17D0002F04D058
S1130DD0022F15D00D2040420DE05A00D318DA003E
S1130DE0A36A9E50731E9E41F3B23A00290020006C
S1130DF0064CA047002004BC9146F0BDA661F1E773
S1130E00E661EFE760290000DD130000211900000E
S1130E1010B50400431E9841C0B2D6220349044BC6
S1130E2098472000034B9847002010BD602900001C
S1130E30DD130000D3180000F0B583B00600009164
S1130E4001921C000C4D431E9841C0B2F5222900AA
S1130E500A4FB8472423F35C0020A3424041C0B2A8
S1130E60F6222900B8472300019A00993000044C67
S1130E70A047002003B0F0BD60290000DD1300008E
S1130E80E9180000EFF31083036072B6BFF35F8FBD
S1130E907047BFF35F8F036883F3108870470000C7
S1130EA070B504000D00002810D000290CD00120DA
S1130EB032220C490C4B9847290020000B4B9847D1
S1130EC000280ED100230AE00020F1E70020EFE71C
S1130ED0DA00A2180021516091600133DBB2002BCB
S1130EE0F6D070BD7C290000DD130000291A000033
S1130EF070B504000D0000280CD000290CD000208F
S1130F0052220649064B984729002000054B984772
S1130F10002070BD0020F3E70120F1E77C290000E8
S1130F20DD130000551A0000F0B5CE4600B582B0BE
S1130F3007000D0014009946002807D0002907D1A6
S1130F40002A18D0002B18D1002002E0002000E075
S1130F5000206A221749184B984701972900380046
S1130F60164B9847002822D02E00EB00FB185C603B
S1130F704A469A6011E00020EBE70120E9E7F4001B
S1130F803C19636819882A0001980D4B98476368D7
S1130F9002336360A368013BA360F300FB189B6802
S1130FA0002BECD1002002B004BC9146F0BD1D2002
S1130FB04042F8E77C290000DD130000691A0000B4
S1130FC07B1A000010B5014B984710BD311C00007E
S1130FD070B50325002407E00D4AB358002B00D058
S1130FE0984770BD013AD5B2AC42FAD82B195B10C0
S1130FF0DAB2022AF5D8FF210B40DE000449891930
S113100049688142E8D0EDD20132D4B2ECE7C0465F
S11310105C00002010B5002309E0084AD9005018EC
S11310200124644244600020885001339BB2022BA7
S1131030F3D90348034B984710BDC0465C00002019
S1131040D10F0000891A0000F0B5D6464F46464637
S1131050C0B584B00023022B0CD8DC00324A12192C
S11310605268824202D00133DBB2F4E72E4BE150E6
S1131070012600E0002600290CD0002E42D10023D6
S1131080022B11D8DA00284D5259002A07D0013317
S1131090DBB2F5E7002E40D0244B984737E0DC0064
S11310A061512C1960600126002201E00132D2B2A4
S11310B0022A27D8022B25D801931B49DC000C19DE
S11310C06768D400091949688F42EFD24C1CEDD0EF
S11310D002A98C46144CA046D400A14644464C4474
S11310E0654682CC82C50199C9008A464946414475
S11310F044465444A0CCA0C145465544614690C9D9
S113110090C5D3E7002E0BD00121084B984704B0BB
S11311101CBC90469946A246F0BD0D204042F6E71D
S11311200D204042F3E7C0465C000020211B000074
S113113010B5083800230363436A002B00D0984796
S113114010BD10B5083800230363C36A002B00D018
S1131150984710BD10B504002C30044B9847236AFF
S1131160083C002B01D02000984710BD7D140000DE
S113117070B504000E00150000281DD000291DD0F4
S1131180002A1DD100203C22FF321049104B984701
S11311904423E25A0833E35A9A4213D1A6644C23F7
S11311A0E5520022083BE252433B2363200008300F
S11311B0084B9847280070BD0020E4E70020E2E7D0
S11311C00120E0E71C204042F5E7C04698290000D2
S11311D0DD130000671F000070B504000200083A28
S11311E04423D35A4C21525A93420DD00200016C2D
S11311F0083A5D1C44201552C95C2000044B9847F2
S11312002000044B984770BD034B9847FBE7C0464A
S11312105F1F0000671F00006F1F0000F0B585B05E
S113122004000D001600002817D0002917D0002A4A
S113123017D10020AC2252001249134B984703A83F
S1131240124B9847343420000194114B98470700FF
S113125003A8104B984700240BE00020EAE7002085
S1131260E8E70120E6E70134A4B2691801980A4BC3
S113127098472100A74201D9B442F4D3200005B015
S1131280F0BDC04698290000DD130000850E000063
S1131290BD140000930E000031140000F8B50400E2
S11312A00D0016001F00002826D0002926D0002A91
S11312B026D0002B26D100203A221549154B9847F9
S11312C0200034303A003100134B984700281BD1DA
S11312D0200008302900114B984700280BD1104BEF
S11312E06360104B2360104BA360104BE360104B02
S11312F02361104B6361F8BD0020DDE70020DBE7CC
S11313000020D9E70120D7E70D204042F3E7C0468B
S113131098290000DD130000E5130000C11E000041
S11313201D12000071110000D911000055110000B8
S1131330311100004311000010B50400431E984110
S1131340C0B261220449054B984720000830044B81
S11313509847002010BDC04698290000DD13000006
S11313604D1F000070B505000E001400431E984187
S1131370C0B283221649174B9847012E11D0002E74
S113138004D0022E18D00D20404209E0AC62621E47
S11313909441E2B22800083001210F4B9847002005
S11313A070BD6C62621E9441E2B2280008300221D2
S11313B0094B98470020F3E7EC62621E9441E2B2C5
S11313C0280008300321044B98470020E8E7C04672
S11313D098290000DD130000791F0000002800D1C7
S11313E000BE704770B504000E001500002812D02E
S11313F0002912D0002A12D1002028220A490B4BBE
S113140098476B1E2B420CD163600023A360E360FA
S11314102660002070BD0020EFE70020EDE70120EA
S1131420EBE70D204042F5E7B8290000DD1300008A
S113143070B504000D00002816D0002912D0012038
S113144040220C490C4B9847A368E2689A420DD09D
S1131450626813402268D35C2B70A3680133A360D5
S1131460002070BD0020EBE70020E9E70A2040429D
S1131470F7E7C046B8290000DD13000070B504008A
S11314800D00431E9841C0B251220A490A4B9847A5
S11314906368E26813402268D554E368A2689A1A24
S11314A061688A4201D9591AA1600133E3600020BE
S11314B070BDC046B8290000DD13000010B504005B
S11314C0431E9841C0B267220349044B9847E06821
S11314D0A368C01A10BDC046B8290000DD1300007F
S11314E0034B984200D07047024B1960FBE7C0469B
S11314F0004400427400002010B50023002B01D0EA
S1131500002010BD9A00D2189100054A8A588242E0
S113151002D00133DBB2F1E701484018F1E7C046DD
S1131520DC29000010B50400431E9841C0B2182203
S1131530FF321E491E4B984720001E4B9847002837
S113154031D0637ADB09FCD1637ADB09FCD12378DF
S11315509B0707D500232370637ADB09FCD1637AE8
S1131560DB09FCD101232370637ADB09FCD1637AA4
S1131570DB09FCD183682361637ADB09FCD1C3688E
S11315806361637ADB09FCD1027C2033E254427C40
S11315900133E254C388638043792370637ADB099F
S11315A0FCD1002010BD0A204042FBE7F0290000D6
S11315B0DD130000F9140000F8B506000C00431E0A
S11315C09841C0B275222349234B98472000234BEE
S11315D09847051E01D02800F8BDF4602000204B78
S11315E09847071E32D0310020001E4B9847012334
S11315F06371013363710E3363710423FB56002B53
S11316000BDB1F2213401E3A9A4013008022164916
S11316108B50BFF34F8FBFF36F8F0423FB56002B08
S113162008DB1F2213401E3A9A401300C0225200C6
S11316300D498B500423FB56002BCCDB1F22134097
S11316401E3A9A401300084A1360C4E70A256D4203
S1131650C1E7C046F0290000DD1300002515000095
S1131660F9140000E114000000E100E0C2681378FE
S113167002210B43DBB21370537ADB09FCD17047B0
S113168010B5C2680B1D9B00985801242043985044
S1131690537ADB09FCD1537ADB09FCD10B1D9B0087
S11316A09B589B0703D5002902D00223537010BD19
S11316B001235370FBE7000010B50F4B1868C36893
S11316C00268002A05D09A79D20703D49A7992073E
S11316D008D410BD1A7A01210A40997103680021C7
S11316E09847F6E7197A490801220A4002219971BC
S11316F0036801399847ECE7740000200020704724
S113170010B50B4B984702000020002806D07F221A
S113171008490020084B9847002010BDC3001B1A3D
S11317209900064BCB5C9A42F7D00130C0B2ECE78B
S1131730FD160000202A0000DD130000042A00002A
S113174070B504000D003A4BC01843425841C0B272
S113175094223849384B9847384B1A68D2081202F9
S1131760E023DB001A4036490B6849684901DB0E67
S11317700B43FF210B401A43637EDB09FCD1237822
S11317809B0704D500232370637EDB09FCD101236E
S11317902370637EDB09FCD12285EA00521B910091
S11317A0284B5B189A786270DA78A2701A79E27022
S11317B01A7C2275DA8AA2841A8BE284997E2A2200
S11317C0A154DB88A380637EDB09FCD1EB005B1BA7
S11317D09A001C4B9B18DB682361637EDB09FCD1F8
S11317E0EB005B1B9A00174B9B181B7A2372637EDA
S11317F0DB09FCD1EB005B1B9A00124B9B185B8A44
S1131800A383637EDB09FCD1EB005B1B9A000D4BC9
S11318109B189B8A2384637EDB09FCD1EB005D1B50
S1131820AA00084B9B185B782370002070BDC0464B
S113183000C0FFBD202A0000DD13000024608000EA
S113184020608000042A000070B505000C00431ECF
S11318509841C0B2D3220E490E4B984720000E4B3C
S11318609847010020000D4B984700280FD16C6168
S11318700B4B1D600B4B8022120480215A50BFF386
S11318804F8FBFF36F8F0131FF315A501A6070BD13
S1131890202A0000DD13000001170000411700009A
S11318A07800002000E100E04269137802210B4334
S11318B0DBB2137070474269537EDB09FCD1928816
S11318C0120903331340032B01D002207047012077
S11318D0FCE74269137B02210B43DBB21373537E93
S11318E0DB09FCD17047000030B5446923691F252A
S11318F0AB43294019432161637EDB09FCD1416973
S11319000B69064803401202F820400102401A43C2
S11319100A614B7EDB09FCD130BDC046FFE0FFFF0E
S11319204169012A08D0022A0ED0002A03D1002BD3
S113193012D00123CB757047002B02D104338B7571
S1131940F9E70423CB75F6E7002B02D102338B753C
S1131950F1E70223CB75EEE701338B75EBE700006B
S113196010B5114B18684269117ED37D0B40D9071D
S11319700AD5012313768468537EDB09FCD1528B8C
S113198092B20021A04710BD990707D45B07FAD58E
S113199004231376036800219847F4E7022313769F
S11319A0436800219847EEE77800002010B5084A04
S11319B0536802210B435360064B9847064B9847E4
S11319C00820064CA047064B9847F720A04710BDB7
S11319D000400041D11C000005200000751C0000DF
S11319E061200000C379DB09FCD1C379DB09FCD198
S11319F003789B0707D500230370C379DB09FCD167
S1131A00C379DB09FCD101230370C379DB09FCD161
S1131A10C379DB09FCD183704A2242700370C37915
S1131A20DB09FCD10020704770B505000C00431E93
S1131A309841C0B249220449044B98472C602000C5
S1131A40034B984770BDC046382A0000DD130000E0
S1131A50E51900000268137802210B43DBB213700E
S1131A60D379DB09FCD170470268D379DB09FCD157
S1131A7013785B0801201840704702681181D379FC
S1131A80DB09FCD170470000214B5B78DB09FBD1FB
S1131A901F4B5B78DB09FBD11D4B1B789B070AD5D9
S1131AA000221B4B1A701A4B5B78DB09FBD1184BD5
S1131AB05B78DB09FBD10122154B1A70144B5B7860
S1131AC0DB09FBD1124B5B78DB09FBD1104B002205
S1131AD09A705A605A610F499961DA611A78022141
S1131AE00A43D2B21A700A4B5B78DB09FBD10A4B6A
S1131AF0102280215A50BFF34F8FBFF36F8F0131F3
S1131B00FF315A501A60054B186000207047C046D8
S1131B10001800402200230300E100E07C000020C4
S1131B2030B50023022B0BD8DC00104A121952687E
S1131B30824202D00133DBB2F4E70C4BE25C00E0FA
S1131B40FF22FF2A0ED0002906D101239340084A20
S1131B5093601361002030BD01239340044AD36095
S1131B600020F8E70D204042F5E7C046502A000067
S1131B7000180040F0B583B0274B1A69D9680A40B1
S1131B800192019A1A61254B1868431E9841C0B20C
S1131B90D2222349234B984701256D4231E0DB00D3
S1131BA0214AD3185D686B1C03D01C4B1B682800AA
S1131BB098470122A240019B9343019301981B4B38
S1131BC09847013844B2631C14D00326002001E076
S1131BD00139CEB2B042E6D833185B10D9B2FF2235
S1131BE01340DF00104ABA5CA242D8D0F0DA0131C7
S1131BF0C8B2EFE7084B1A69D9680A400192019A02
S1131C001A61019B002B05D00198084B98470138B5
S1131C1044B2D8E703B0F0BD001800407C000020B7
S1131C20682A0000DD130000502A00008928000003
S1131C30002306E059000D4A895A0D4A11810133E7
S1131C40DBB21E2BF6D9002307E09900074A52188D
S1131C50116C074A51600133DBB20B2BF5D9044BED
S1131C6000225A61013A1A6100207047802A00005C
S1131C7000040042C30709D5114B802252009A6028
S1131C80104A5A600E4B5B78DB09FBD1830709D5F8
S1131C900B4B0222FF329A600B4A5A60084B5B7866
S1131CA0DB09FBD1030709D5054B0422FF329A60F7
S1131CB0064A5A60024B5B78DB09FBD17047C04689
S1131CC0000C004000070900010709000305090092
S1131CD0064B1A7AD2B21A725A7AD2B25A729A7AD3
S1131CE0D2B29A72DA7AD2B2DA7270470004004041
S1131CF0024B9C466044800AC0B2704700F8FFBDA6
S1131D0010B58469237EDB0702D5A37DDB070FD4DE
S1131D10237E9B0702D5A37D9B070ED4237E5B07FE
S1131D2015D5628B37231A420CD00833638310BD58
S1131D300123237503689847F9E702232375836811
S1131D409847F4E74368218DC9B29847EFE7237EAB
S1131D50DB09ECD080232376C3689847638B9BB25E
S1131D606383E4E7034B984200D07047024B196049
S1131D70FBE7C046001C00428000002010B5024B67
S1131D8098470930C0B210BDF11C000010B50B4BD0
S1131D90984702000020002806D0094A094900207B
S1131DA0094B9847002010BD83001B189900074B6E
S1131DB0CB5C9A42F7D00130C0B2ECE7F11C0000D2
S1131DC05E020000402B0000DD130000F02A00003A
S1131DD070B50400384B9847E369DB071DD48300D2
S1131DE01B189A00354B9B185A681C231A40E36948
S1131DF09B07FCD123689B0709D5236802218B43E9
S1131E002360E3699B07FCD1E3699B07FCD40123AE
S1131E1013432360E3699B07FCD1E369DB07FCD42C
S1131E2083001B189A00254B9B185B682360E369A9
S1131E309B07FCD183001B189A00204B9B189B68BE
S1131E406360E3695B07FCD183001B189A001B4B9A
S1131E509B185B689A040BD4C022D201134207D1A9
S1131E6083001B189A00154B9B189B89A38115E0CE
S1131E7083001B189A00114989188A89A389D204FE
S1131E80D20C5B0B5B031343A3818B7B07221A40A9
S1131E90A3895203DB04DB0C1343A381074A8300A9
S1131EA01D18A9000D005118C97BA1735219127C89
S1131EB03023E254002070BD8D1D0000F02A000084
S1131EC070B506000C00431E9841C0B2C4221949E3
S1131ED0194B98472000194B9847051E01D028003C
S1131EE070BDB46131002000154B98472000154B9C
S1131EF0984743B2002B0ADB1F21014001228A408C
S1131F008021114C6250BFF34F8FBFF36F8F002BB2
S1131F1007DB1F21014001228A40C02149000A4CED
S1131F206250002BDBDB1F2318401E3B8340064A14
S1131F301360D4E7402B0000DD130000D11D000026
S1131F40651D00007D1D000000E100E0826913684A
S1131F5002210B431360D3699B07FCD1704783694B
S1131F6089B219857047836901229A75704783691C
S1131F7002229A757047000070B504000D00160027
S1131F80431E9841C0B2174A1749184B9847002D71
S1131F900BD0022D09D0012D18D0032D0FD1A36928
S1131FA0002E1CD080229A7509E0A369002E07D167
S1131FB001221A75A369002E05D102221A7570BD7B
S1131FC001229A75F6E702229A75F8E7A369002EB2
S1131FD002D104221A75F2E704229A75EFE78022EF
S1131FE01A75ECE71E020000402B0000DD13000010
S1131FF010B5024B1868024B984710BD80000020B2
S1132000011D0000144A0E239382116A090C136AFD
S11320109B0F9B070904114801400B4302210B430A
S1132020136293690B439361137F1D310B40137744
S1132030094BDB689B07FBD5074A938A80210B4336
S11320409BB29382044BDB681B07FBD5024A136ADD
S113205080210B4313627047000800400000FF0F0B
S11320608622D2011C4B5A8002221C4B9A841B4BA1
S1132070DB68DB06FBD51A4A184BDA62194B1B687E
S11320809B0E3F2B20D09B02802292001343134AC5
S1132090936206239384938C5B0718D50F4BDA68FD
S11320A0D0231340D02BF9D10C4A938C80210B43BD
S11320B09BB29384084B5B78DB09FBD1074A936995
S11320C002218B4393617047FC23DB01DFE7034B61
S11320D0DB68DB06FBD5E7E7000C004000080040A6
S11320E0B8050104246080001F4B9B68DB071BD4E8
S11320F01D4B9B689B07FBD11B4B1B689B070CD597
S1132100194A136802218B431360174B9B689B0782
S1132110FBD1154B9B689B07FBD40122124B1A6021
S1132120114B9B689B07FBD10F4B9B68DB07FBD4D0
S11321300E4A0D4B1A640C4B9B681B06FBD40A4BCE
S1132140802252041A62802292029A62084A5A62D7
S11321501A6802218A430A431A60034B9B689B074F
S1132160FBD100207047C04600240042FFFF00005E
S1132170FFFFFDFF10B52B4B984703000224982264
S1132180C021C9058C50284A90421BD8802149059A
S1132190C022D2059161254A11681060224A9342F7
S11321A016D9234B1A68596899605A60214BDA662C
S11321B0204B9B685B03FBD402219423C022D205ED
S11321C0D15010BD80214905C022D2055161E2E7FA
S11321D0164B9B88E42292005343010008311800F7
S11321E0154B9847F030154B984205D8144B98423C
S11321F003D8B420800000E0124880B20B4B9B88C7
S1132200181880B20A4B5A689A605860094BD8660D
S1132210084B9B685B03FBD402219423C022D205A4
S1132220D150CEE75D010000B90400008400002015
S113223008000020002400429D250000F3A80300AC
S1132240CF020000F4A80300F8B5C026F605042365
S113225073601E4B1E4A9A62C02212069A62422082
S1132260195C0125A94301242143C9B21954113829
S1132270195C0F27B9432143C9B21954082171606D
S1132280144999629A6243215A5CAA432243D2B206
S11322905A541A5C34390A4010210A43D2B21A54EF
S11322A00D4C00230022012120000C4DA8470C4BAB
S11322B00022002120000B4DA847002120000A4BDA
S11322C098472000094B9847F8BDC0460044004198
S11322D00400004008000040AC000020390E00005B
S11322E075210000950D0000550D0000110E000031
S11322F080229202134BDA62134AD38801339BB2D1
S1132300D380D3889BB2114A934213D900230E4A37
S113231093800C4A53670B4B9A68F023DB031A42F1
S1132320F9D10B4A074B1A67064B9A68F023DB0373
S11323301A42F9D1C023DB05022298215A500439EC
S11323405A50704700240042840000208713000084
S1132350FFFFFF0000230A4A93800A4A5367094B90
S11323609A68F023DB031A42F9D1074A054B1A672E
S1132370044B9A68F023DB031A42F9D17047C04634
S11323808400002000240042FFFFFF00114B0022C4
S11323909A60DA80104B5A689A60104A5A60104B5F
S11323A0DA660F4B9B685B03FBD46E23094A938068
S11323B00B4A53670A4B9A68F023DB031A42F9D19C
S11323C0A922074B1A67064B9A68F023DB031A42CB
S11323D0F9D170478400002008000020F4A803000D
S11323E00024004230B5274A274B1A64264B9B68C9
S11323F01B06FBD40023254A9380234A5367224BB0
S11324009A68F023DB031A42F9D1214A1E4B1A675A
S11324101D4B9A68F023DB031A42F9D11D4A1A4B6B
S1132420DA63194B9A681C4B1A42FAD1C023DB05B4
S1132430802098619860194B194A9A62C02212064A
S11324409A624724195D40252943C9B21955195D7B
S1132450012291431143C9B2195533215A5C383CC6
S113246022402A43D2B25A540E4B802252021A50AE
S1132470BFF34F8FBFF36F8F4E31FF315A501A6045
S113248030BDC046F4A803000024004284000020AC
S1132490FFFFFF0002000200FF0F7F000044004125
S11324A08000004000E100E010B5014B984710BDEA
S11324B05523000010B5014B984710BD552300006B
S11324C010B5014B984710BD8D23000010B5400591
S11324D0400D014B984710BD5D04000010B5014B41
S11324E0984710BDC503000010B519495B23CA5CA9
S11324F040200243D2B2CA545C228B5C0343DBB259
S11325008B5414491020144CA04714491120A0479F
S113251013491520A0470120124B98471248134B2A
S11325209847134B9847134B9847134B9847134AB4
S1132530134B53601348036A1B021B0AC02109068C
S11325400B430362002393600733136010BDC0463E
S113255000440041A924000049100000C1240000E7
S1132560B52400005D040000FC00002069040000A4
S1132570E5230000492200006D03000010E000E0A4
S11325809F86010000ED00E010B5024B9847024B16
S11325909847FEE771010000E92400000022430887
S11325A08B4274D303098B425FD3030A8B4244D317
S11325B0030B8B4228D3030C8B420DD3FF22090259
S11325C012BA030C8B4202D31212090265D0030B18
S11325D08B4219D300E0090AC30B8B4201D3CB030E
S11325E0C01A5241830B8B4201D38B03C01A524150
S11325F0430B8B4201D34B03C01A5241030B8B4252
S113260001D30B03C01A5241C30A8B4201D3CB023C
S1132610C01A5241830A8B4201D38B02C01A524121
S1132620430A8B4201D34B02C01A5241030A8B4224
S113263001D30B02C01A5241CDD2C3098B4201D33C
S1132640CB01C01A524183098B4201D38B01C01ABA
S1132650524143098B4201D34B01C01A5241030931
S11326608B4201D30B01C01A5241C3088B4201D3E0
S1132670CB00C01A524183088B4201D38B00C01A8D
S1132680524143088B4201D34B00C01A5241411AB4
S113269000D20146524110467047FFE701B50020C1
S11326A000F0F0F802BDC0460029F7D076E7704785
S11326B003460B437FD4002243088B4274D303099F
S11326C08B425FD3030A8B4244D3030B8B4228D340
S11326D0030C8B420DD3FF22090212BA030C8B4266
S11326E002D31212090265D0030B8B4219D300E006
S11326F0090AC30B8B4201D3CB03C01A5241830B8B
S11327008B4201D38B03C01A5241430B8B4201D33A
S11327104B03C01A5241030B8B4201D30B03C01A63
S11327205241C30A8B4201D3CB02C01A5241830ADD
S11327308B4201D38B02C01A5241430A8B4201D30C
S11327404B02C01A5241030A8B4201D30B02C01A36
S11327505241CDD2C3098B4201D3CB01C01A52419D
S113276083098B4201D38B01C01A524143098B4226
S113277001D34B01C01A524103098B4201D30B010F
S1132780C01A5241C3088B4201D3CB00C01A524134
S113279083088B4201D38B00C01A524143088B42F9
S11327A001D34B00C01A5241411A00D20146524192
S11327B0104670475DE0CA0F00D04942031000D3B1
S11327C04042534000229C4603098B422DD3030A06
S11327D08B4212D3FC22890112BA030A8B420CD316
S11327E0890192118B4208D3890192118B4204D33F
S11327F089013AD0921100E08909C3098B4201D3BF
S1132800CB01C01A524183098B4201D38B01C01AF8
S1132810524143098B4201D34B01C01A524103096F
S11328208B4201D30B01C01A5241C3088B4201D31E
S1132830CB00C01A524183088B4201D38B00C01ACB
S11328405241D9D243088B4201D34B00C01A5241A2
S1132850411A00D20146634652415B10104601D32F
S11328604042002B00D54942704763465B1000D3B9
S1132870404201B5002000F005F802BD0029F8D05F
S113288016E770477047C04610B50023002802D0F1
S113289000F004F8431C180010BDC0464142084033
S11328A01C2101231B04984201D3000C10391B0A7C
S11328B0984201D3000A08391B09984201D3000940
S11328C0043902A2105C401A7047C0461B1C1D1D2F
S11328D01E1E1E1E1F1F1F1F1F1F1F1F70B5002639
S11328E00C4D0D4C641BA410A64209D1002600F027
S11328F035F90A4D0A4C641BA410A64205D170BDDB
S1132900B300EB5898470136EEE7B300EB5898470D
S11329100136F2E7682B0000682B0000682B0000EA
S11329206C2B0000000019004E008000A700C900B5
S1132930EF001101330152016C0185019801AA01D4
S1132940BE01D1012E2E2F68616C2F7372632F6824
S1132950616C5F61635F6173796E632E6300000075
S11329602E2E2F68616C2F7372632F68616C5F6108
S113297064635F6173796E632E6300002E2E2F688B
S1132980616C2F7372632F68616C5F6461635F7342
S1132990796E632E630000002E2E2F68616C2F73F6
S11329A072632F68616C5F75736172745F617379B0
S11329B06E632E63000000002E2E2F68616C2F754D
S11329C074696C732F7372632F7574696C735F729F
S11329D0696E676275666665722E63000044004224
S11329E018000000620700006217000000000000E9
S11329F02E2E2F68706C2F61632F68706C5F61637B
S1132A002E6300000002020000000003000000002A
S1132A1001000000010000000000000000000000B0
S1132A202E2E2F68706C2F6164632F68706C5F6149
S1132A3064632E63000000002E2E2F68706C2F64D8
S1132A4061632F68706C5F6461632E630000000033
S1132A500000000010000000010000001100000050
S1132A6005000000150000002E2E2F68706C2F65E5
S1132A7069632F68706C5F6569632E6300000000F2
S1132A800000010002000300040005000600070026
S1132A90080009000A000B000C010D000E000F00D5
S1132AA01000110012001300140015001600170185
S1132AB0180019001A001B001C001D001E00000055
S1132AC000002C02010000000200000003000000CE
S1132AD004000000050000000600000007000000DC
S1132AE008000000090000000A0000000B000000BC
S1132AF0050000000400104040000200A7EA0000A6
S1132B0000000000000000000000000000000000C1
S1132B1000000000000000000000000000000000B1
S1132B2000000000000000000000000000000000A1
S1132B300000000000000000000000000000000091
S1132B402E2E2F68706C2F736572636F6D2F6870F3
S1132B506C5F736572636F6D2E630000F8B5C046D9
S1132B60F8BC08BC9E467047DD000000F8B5C046BE
S10F2B70F8BC08BC9E467047B50000008D
S1132B7C0900000201000000F4A80300F4A80300FB
S1072B8CF4A80300A2
S9030000FC
