:100000002809002065060000610600006106000066
:1000100000000000000000000000000000000000E0
:100020000000000000000000000000006106000069
:100030000000000000000000610600006D2B0000C1
:100040006106000061060000610600000909000069
:100050003D1B0000611D00006106000061060000FC
:1000600061060000610600006106000061060000F4
:10007000810A000061060000610600001D310000D9
:100080007D270000E9310000653200006533000083
:10009000ED330000E5320000753400002925000032
:1000A0002D190000610600006106000061060000D5
:1000B0000000000010B5064C2378002B07D1054B3B
:1000C000002B02D0044800E000BF0123237010BDC4
:1000D000F803002000000000545A0000084B10B53F
:1000E000002B03D00749084800E000BF0748036819
:1000F000002B00D110BD064B002BFBD09847F9E731
:1001000000000000FC030020545A0000545A000074
:100110000000000010B58369002B00D0984710BD87
:1001200010B5C369002B00D0984710BDF0B583B05F
:1001300005000E001100036A9A5D53009B18DC0055
:10014000836A9C466444271D01916B4619793800E7
:100150000C4B984728000C4B9847012807D9019B66
:10016000190A3800074B9847A38A0133A382A38A50
:100170000133A3822368002B02D031002800984766
:1001800003B0F0BD4D17000037050000F0B5D646AE
:1001900000B582B00500019116001C0008AB1F7865
:1001A00000280CD000290CD0002A0CD0002F0CD035
:1001B000099B002B01D0012008E0002006E0002070
:1001C00004E0002002E0002000E000203F22164969
:1001D000164B9A469847621CFB0FD017BA425841FB
:1001E000C0B240221049D047002303E0FF22F2545E
:1001F0000133DBB2A342F9D92E622423EC5401333C
:10020000EF54099BAB6201992800094B98470028DD
:1002100005D1084BAB60084B2B60084B6B6002B0FC
:1002200004BC9246F0BDC04668570000F9160000B5
:10023000D10400002D010000150100002101000083
:10024000F0B583B007000C0000920193002819D08C
:10025000002A19D0002B19D10020244E662231002B
:10026000234DA8472423FB5C0020A3424041C0B299
:1002700067223100A847396A0B5DFF2B2CD100267D
:10028000002307E00020E8E70020E6E70120E4E79C
:100290000133DBB22422BA5C934205D8CA5CFF2A40
:1002A000F6D00136F6B2F3E72523FB5C9E4216D862
:1002B00073009B19DD00BB6A58190430019A00993C
:1002C0000C4B984700280DD13B6A1E55BB6A5B1941
:1002D00000229A8203B0F0BD0D204042FAE71C20B4
:1002E0004042F7E70D204042F4E7C046685700005F
:1002F000F916000001170000F8B506000C000B4DC0
:10030000431E9841C0B283222900094FB8472423D5
:10031000F35C0020A3424041C0B284222900B847C8
:1003200021003000034B98470020F8BD68570000BB
:10033000F916000029050000F0B583B00600009111
:1003400001921C000C4D431E9841C0B2F5222900B9
:100350000A4FB8472423F35C0020A3424041C0B2B7
:10036000F6222900B8472300019A00993000044C76
:10037000A047002003B0F0BD68570000F916000048
:10038000550500000020704710B50B4B9847020040
:100390000020002806D07F2208490020084B9847FB
:1003A000002010BDC3001B1A9900064BCB5C9A427B
:1003B000F7D00130C0B2ECE7850300009C57000085
:1003C000F91600008057000070B504000D003A4B8C
:1003D000C01843425841C0B294223849384B98471C
:1003E000384B1A68D2081202E023DB001A40364963
:1003F0000B6849684901DB0E0B43FF210B401A4390
:10040000637EDB09FCD123789B0704D5002323708E
:10041000637EDB09FCD101232370637EDB09FCD101
:100420002285EA00521B9100284B5B189A78627073
:10043000DA78A2701A79E2701A7C2275DA8AA284BC
:100440001A8BE284997E2A22A154DB88A380637EE2
:10045000DB09FCD1EB005B1B9A001C4B9B18DB6893
:100460002361637EDB09FCD1EB005B1B9A00174B19
:100470009B181B7A2372637EDB09FCD1EB005B1BAC
:100480009A00124B9B185B8AA383637EDB09FCD125
:10049000EB005B1B9A000D4B9B189B8A2384637EA9
:1004A000DB09FCD1EB005D1BAA00084B9B185B78B5
:1004B0002370002070BDC04600C0FFBD9C570000E7
:1004C000F916000024608000206080008057000042
:1004D00070B505000C00431E9841C0B2D3220D49EF
:1004E0000D4B984720000D4B9847010020000C4B06
:1004F000984700280DD16C610A4B8022120480219C
:100500005A50BFF34F8FBFF36F8F0131FF315A50F5
:100510001A6070BD9C570000F916000089030000A6
:10052000C903000000E100E04269137802210B4397
:10053000DBB2137070474269537EDB09FCD19288AD
:10054000120903331340032B01D00220704701200E
:10055000FCE7000030B5446923691F25AB432940FF
:1005600019432161637EDB09FCD141690B690648AF
:1005700003401202F820400102401A430A614B7EF8
:10058000DB09FCD130BDC046FFE0FFFFF0B585B010
:10059000244A116A80235B020B431362224A234BD5
:1005A0005A80234D234E00230293234B01930124B1
:1005B000009400232A0021493000214FB8472A1D0A
:1005C0001023002130001F4DA847C026F605042344
:1005D00073601D4B1D4A9A62C02212069A62422025
:1005E000195CA14301252943C9B219541138195C7A
:1005F0000F27B9432943C9B219540821716014491E
:1006000099629A6243215A5CA2432A43D2B25A5455
:100610001A5C34390A4010210A43D2B21A5405B088
:10062000F0BDC046000400401E400000000C004029
:100630001404002074040020A004002000400042A4
:100640008D01000041020000004400410400004010
:100650000800004010B5014B984710BD8D100000F8
:10066000FEE70000F8B5234A234B9A4209D0224BFB
:10067000204A03E011681960043304321F498B4299
:10068000F8D31F4B02E000221A6004331D4A934244
:10069000F9D31D4AFF211D4B8B439360FD399023F5
:1006A0005B001B4AD1501B4AD3780325AB4302247D
:1006B0002343D370D3780C27BB4308263343D3702E
:1006C000154B987B30229043202210439873997BDE
:1006D000B943314399739A7BAA4322439A730F4AD1
:1006E000516880230B4353600D4B98470D4B98473F
:1006F000FEE7C046545A000000000020F40300202A
:10070000F80300202405002000ED00E000000000B8
:10071000007000410050004100480041004000418D
:1007200021570000912C0000F0B5060003210022A3
:10073000002000E00139002913DB01238B405BB26C
:100740001A4355B2EAB25700064C3C5BB442F1D9A9
:100750000322521A012494402043C0B26B40DAB203
:10076000E8E7F0BDB057000010B51A4B98471A4B98
:100770001B78002B02D10022174B5A80164C22788E
:1007800002239B1A9B00984003006088184380B2A4
:100790006080207801300321104B9847C9B2217046
:1007A00022780F4BD9680B69012083430B610B69D9
:1007B0000C4803401203C0208001024013430B6128
:1007C0002378002B00D010BD608880B2064B98477C
:1007D000F9E7C0462907000028040020A5380000DA
:1007E000E8040020FFCFFFFFF12A000010B55342BC
:1007F0005A4117490B78DBB29A4013004A885A4095
:1008000092B24A800B78002B18D00B78013BDBB2F8
:100810000B700F4A1178C9B201238B40190053881D
:100820000B439BB2538053889BB20A4A13810A4AF6
:10083000138802210B439BB2138010BD044C092383
:100840002370608880B2054B984700236380E0E7FF
:10085000000000200048004200140040690700002A
:1008600030B583B01E4C002120001E4B98471E4B14
:100870005B886A46063213800123002120001B4C4E
:10088000A0471B4D1B4A002128001B4B98471B4CBF
:10089000C6229200A358FF218B433F390B43A3503C
:1008A0002800174B984708228023E250BFF34F8F50
:1008B000BFF36F8F0133FF33E250C0208000235815
:1008C0001B021B0AC02109060B43235022600D4B5B
:1008D0001A6901210A431A61597003B030BDC0463C
:1008E000FC04002055140000000000208D140000BE
:1008F000E8040020ED070000D513000000E100E04F
:10090000AD13000000440042074B1A8802218A43BD
:100910001A8001221A7200211961044B19691143CE
:1009200019615A707047C0460014004000440042EC
:1009300010B50B4B98470B4BCE215A5C01208243DC
:100940005A54C022D2058021C9018730115020306D
:10095000054C1C50C02424061C509823D15010BDB7
:10096000291F00000044004100400040F8B5060087
:100970000D00032417E029003000134B9847FF2295
:10098000130023405B001140104A575C1048C754C5
:100990000133511828228A5CC254290030000D4BC3
:1009A000984786B2013C002C0CDB002EE3D1032CCF
:1009B000E1D0FF2323405B00054A7F21D15401335E
:1009C000D154EFE7F8BDC046A5380000D05700006D
:1009D00004000020D936000010B50A21014B9847C9
:1009E00010BDC0466D090000F0B5D6464F464646DC
:1009F000C0B582B01E4D2B780133D917490F5A1854
:100A0000072313405B1ADBB22B70C027FF0580233E
:100A1000DB01984694234246FA502B78154E50221B
:100A200091465B00F3189B5A6A46D41D1B0AD3718A
:100A300001212000104B9A4698472B785B00F6184E
:100A40004B46F35A237001212000D0472B78DBB2AC
:100A50000A4AD35C237001212000D04798234246E4
:100A6000FA5002B01CBC90469946A246F0BDC04662
:100A70002C040020D0570000411F0000040000207B
:100A800010B5214B1B7EDB0913D01F4B80221A7639
:100A9000413A5A831B8D00221C4B1A801C4A138832
:100AA0009BB2528892B2934200D010BD184A9380F4
:100AB000FBE7154B1B7E5B07F7D5134B04221A7619
:100AC0005A8B37231A4217D10F4B198DC9B20F4BCE
:100AD0001A880F4B9B889A4206D318001230824224
:100AE00002DAD01A0B4C215411339A4209D0074A2A
:100AF000138801331380D8E7034B3F225A831B8DA1
:100B0000D3E7054B9847F2E7001400422E0400207B
:100B10000C000020B8040020012B0000014B1880BD
:100B2000588070470C00002010B50B4B8021490104
:100B300080229950BFF34F8FBFF36F8F0132FF3286
:100B40009950C32080001A58FF24A243BF3C22437F
:100B50001A50196010BDC04600E100E0F0B5D6465D
:100B60004F464646C0B53F4A3F4B5A80C022D20549
:100B70008024640254603D4B3D4F9F623D49996221
:100B800054605020195C04263143C9B21954946151
:100B9000195C0125A94301242143C9B21954382104
:100BA0008846595C41388246814340461954802129
:100BB0008902894651609F622F4999624946516076
:100BC00051218C46595C3143C9B26046195449469B
:100BD0009161195CA9432143C9B219544146595C3A
:100BE0004238844601404046195480218903884692
:100BF00051609F6221499962414651605527D95DF4
:100C00003143C9B2D95541469161D95DA9432143C8
:100C1000C9B2D9551B3FD95D60460140D9558021E5
:100C2000C9018C465160164999621649996261461C
:100C300051604E215F5C3E43F6B25E546046906167
:100C40005A5CAA432243D2B25A5417395A5C5046CE
:100C500082435A540C4B98471CBC90469946A24676
:100C6000F0BDC04605400000000C004000440041BB
:100C700000000240010002C0020002C0200002C0C9
:100C800000400240000002C079150000024AD3690A
:100C900004210B43D36170470004004010B5034B9F
:100CA000984703490348044B984710BD8D0C00003A
:100CB00000400041CC040020AD160000044A136A35
:100CC00020210B431362034A034B5A807047C046EE
:100CD0000004004017400000000C004030B50F4BEE
:100CE0005622995C0125A94301242143C9B2995494
:100CF0003B20195C473A914302221143C9B219546F
:100D000057215A5CAA432243D2B25A541A5C48393A
:100D10000A4020210A43D2B21A5430BD0044004197
:100D2000F0B5D6464F464646C0B5C027FF059426C7
:100D300080235B01BB5188257B51294BA824294A7C
:100D40001A51C022120692461A51CC215A5C012037
:100D500080468243844660460243D2B25A541639D2
:100D60005A5C0F2082430220814648460243D2B299
:100D70005A5480229201BA517A511B4A1A51524652
:100D80001A51CD201A5C4546AA4365462A43D2B281
:100D90001A54585C853E304020252843C0B2585430
:100DA000802109028422B950104A1A51104A1A515E
:100DB000CF22995C042081439954995C4046814339
:100DC00060460143C9B29954B7215A5C32402A4364
:100DD000D2B25A541CBC90469946A246F0BDC046B9
:100DE000004400410010004000200040008002400C
:100DF000000002C0044A136A40210B431362034AF5
:100E0000034B5A807047C046000400401840000061
:100E1000000C0040044A936920210B439361034A6C
:100E2000034B5A807047C046000400400440000055
:100E3000000C0040044A116A80231B010B4313621B
:100E4000024A034B5A807047000400401B400000D8
:100E5000000C0040044A116A80235B010B431362BB
:100E6000024A034B5A807047000400401C400000B7
:100E7000000C0040044A116A80239B010B4313625B
:100E8000024A034B5A807047000400401C40000097
:100E9000000C0040044A116A8023DB010B431362FB
:100EA000024A034B5A807047000400401D40000076
:100EB000000C0040044A116A80231B020B4313629A
:100EC000024A034B5A807047000400401D40000056
:100ED000000C0040F0B5C64600B5C027FF05102342
:100EE0007B60204B204A9A62C02636069E624421CF
:100EF0005A5C0125AA4301200243D2B25A5432223D
:100F0000995C0F24A046A1430143C9B29954202102
:100F10007960164999629E6245218C46595CA943C5
:100F20000143C9B264461955995C363C21401024EE
:100F3000A44664462143C9B299540E327A600C4AE1
:100F40009A629E624622995CA9430143C9B29954B0
:100F500033215A5C4446A2430243D2B25A5404BCE1
:100F60009046F0BD004400411000004020000040C9
:100F700040000040054A116A80239B020B43136224
:100F8000034B044A5A80044A5A80704700040040C8
:100F9000000C00401F4000002040000010B5044B32
:100FA000984704490448054B9847054B984710BD9E
:100FB000750F000000440042E8040020691300009F
:100FC000D50E0000044A116A8023DB020B43136232
:100FD000024A034B5A807047000400402140000041
:100FE000000C004010B5034B984703490348044BDD
:100FF000984710BDC50F000000480042FC040020C7
:101000000514000010B5054A054B5A80054A136ABD
:1010100002210B431362044B984710BD07400000A8
:10102000000C00400004004029150000044A116A29
:1010300080235B000B431362024A034B5A807047C4
:10104000000400401A400000000C0040044A116AED
:1010500080239B000B431362024A034B5A80704764
:10106000000400401A400000000C0040044A116ACD
:101070008023DB000B431362024A034B5A80704704
:10108000000400401B400000000C0040F8B5DE46A4
:1010900057464E464546E0B5844B9847C022D20598
:1010A00004245460824B83499962834D9D6242209F
:1010B000195CA14319541E5C01218E431E543A3819
:1010C00050607E4898629D6243201E5CA6431E5479
:1010D0001E5C8E431E543D305060794898629D627C
:1010E00047201D5CA5431D541D5C8D431D5480206D
:1010F00040035060734898627348986254201D5CA6
:10110000A5431D541D5C8D431D5480200005906136
:1011100090608026F6059E626C4898625B25585D5B
:101120008843585580204005906190609E626848D1
:1011300098620135585D88435855982011501038F1
:10114000834611502030634D1D50C0252D06AA4600
:101150001D50C027B846DF5D8F43BC4647466546F5
:10116000DD559425A846923DAC4645466746575105
:1011700065465F46D551584D1D5055461D50C125F9
:10118000A9465D5D2F008F434D465F558025ED01DB
:10119000AC4645466746575165465F46D5514F4D6B
:1011A0001D5055461D50CE25AC465D5D8D436746AE
:1011B000DD558025AD025F46D5511E50484F1F506A
:1011C0004746D551D125A9465D5DA5434F46DD551E
:1011D000DD5D8D430127BC4667463D43EDB24F467A
:1011E000DD55B825A9465D5DC23F3D407027BA4632
:1011F00057463D43EDB24F46DD555D4656511E50B4
:10120000384D1D50404616504A301A5CA2431A54BD
:101210001A5C8A4361460A43D2B21A54BF215A5C0F
:10122000CF38824305200243D2B25A542E4B9847FE
:101230002E4B98472E4B98472E4B98472E4B98474E
:101240002E4B98472E4B98472E4B98472E4B98473E
:101250002E4B98472E4B98472E4B98472E4B98472E
:101260002E4B98472E4B98472E4B98472E4B98471E
:101270002E4B98472E4B98472E4B98472E4B98470E
:101280002E4B98472E4B98472E4B98472E4B9847FE
:101290002E4B98472E4B98472E4B98472E4B9847EE
:1012A0003CBC90469946A246AB46F8BD7119000079
:1012B0000044004104000240000002C00800024057
:1012C0008000024000000240100002C0000800C080
:1012D000001000C00100004002000040004000403B
:1012E000020000C0004000C05D0B00009D0C00002B
:1012F000BD0C000021240000DD0C0000F50D0000F5
:101300006D1E0000210D0000150E0000F51D0000EF
:10131000350E000055220000550E0000B1220000DD
:10132000750E00000D230000950E000069230000DB
:10133000B50E0000C52300009D0F0000E50F000062
:10134000051000002D1000004D2000004D10000081
:10135000212100006D100000A521000010B50369D7
:10136000002B00D0984710BD70B504000D00002878
:1013700011D000290DD0012036220849084B98478A
:1013800029002000074B9847002801D1064B236015
:1013900070BD0020F0E70020EEE7C04630580000A6
:1013A000F9160000651800005D13000010B5040078
:1013B000431E9841C0B252220349044B9847200073
:1013C000034B9847002010BD30580000F91600006C
:1013D0001919000070B504000D001600431E984155
:1013E000C0B26B220549064B9847002D02D12661F9
:1013F000002070BD0D204042FBE7C0463058000081
:10140000F916000070B504000D00002810D0002966
:101410000CD0012032220C490C4B984729002000A7
:101420000B4B984700280ED100230AE00020F1E77B
:101430000020EFE7DA00A21800215160916001332B
:10144000DBB2002BF6D070BD4C580000F91600003E
:10145000ED19000070B504000D0000280CD0002923
:101460000CD0002052220649064B98472900200044
:10147000054B9847002070BD0020F3E70120F1E7FD
:101480004C580000F9160000191A0000F0B5CE46BD
:1014900000B582B007000D0014009946002807D05F
:1014A000002907D1002A18D0002B18D1002002E013
:1014B000002000E000206A221749184B9847019746
:1014C00029003800164B9847002822D02E00EB0048
:1014D000FB185C604A469A6011E00020EBE70120AF
:1014E000E9E7F4003C19636819882A0001980D4B5C
:1014F0009847636802336360A368013BA360F3000D
:10150000FB189B68002BECD1002002B004BC914674
:10151000F0BD1D204042F8E74C580000F9160000CD
:101520002D1A00003F1A000010B5014B984710BD5E
:10153000F91B000070B50425002407E00D4AB358DC
:10154000002B00D0984770BD013AD5B2AC42FAD812
:101550002B195B10DAB2032AF5D8FF210B40DE000D
:101560000449891949688142E8D0EDD20132D4B2E8
:10157000ECE7C0463004002010B5002309E0084A1B
:10158000D90050180124644244600020885001337F
:101590009BB2032BF3D90348034B984710BDC046B9
:1015A00030040020351500004D1A0000F0B5D64675
:1015B0004F464646C0B584B00023032B0CD8DC0050
:1015C000324A12195268824202D00133DBB2F4E788
:1015D0002E4BE150012600E0002600290CD0002E01
:1015E00042D10023032B11D8DA00284D5259002A8A
:1015F00007D00133DBB2F5E7002E40D0244B9847EB
:1016000037E0DC0061512C1960600126002201E006
:101610000132D2B2032A27D8032B25D801931B49C4
:10162000DC000C196768D400091949688F42EFD2B1
:101630004C1CEDD002A98C46144CA046D400A14607
:1016400044464C44654682CC82C50199C9008A460D
:101650004946414444465444A0CCA0C14546554463
:10166000614690C990C5D3E7002E0BD00121084BED
:10167000984704B01CBC90469946A246F0BD0D2088
:101680004042F6E70D204042F3E7C0463004002018
:10169000E91A000010B54369002B00D0984710BD2F
:1016A00010B58369002B00D0984710BD70B50400B9
:1016B0000D00002813D000290FD00120382209493D
:1016C000094B984729002000084B9847002803D170
:1016D000074B2360074B636070BD0020EEE70020DE
:1016E000ECE7C04668580000F9160000B51C000081
:1016F00095160000A1160000002800D100BE70471A
:1017000070B504000E001500002812D0002912D078
:10171000002A12D1002028220A490B4B98476B1E41
:101720002B420CD163600023A360E360266000209D
:1017300070BD0020EFE70020EDE70120EBE70D2072
:101740004042F5E780580000F916000070B504002B
:101750000D00431E9841C0B251220A490A4B9847D6
:101760006368E26813402268D554E368A2689A1A55
:1017700061688A4201D9591AA1600133E3600020EF
:1017800070BDC04680580000F9160000034B984217
:1017900000D07047024B1960FBE7C046004400428E
:1017A0005004002010B50023002B01D0002010BDF4
:1017B0009A00D2189100054A8A58824202D0013319
:1017C000DBB2F1E701484018F1E7C046A458000039
:1017D00010B50400431E9841C0B21822FF321E49C2
:1017E0001E4B984720001E4B9847002831D0637A43
:1017F000DB09FCD1637ADB09FCD123789B0707D591
:1018000000232370637ADB09FCD1637ADB09FCD106
:1018100001232370637ADB09FCD1637ADB09FCD1F5
:1018200083682361637ADB09FCD1C3686361637AEF
:10183000DB09FCD1027C2033E254427C0133E254C8
:10184000C388638043792370637ADB09FCD100206D
:1018500010BD0A204042FBE7B8580000F91600000E
:10186000A5170000F8B506000C00431E9841C0B251
:1018700075222349234B98472000234B9847051E88
:1018800001D02800F8BDF4602000204B9847071EC7
:1018900032D0310020001E4B984701236371013381
:1018A00063710E3363710423FB56002B0BDB1F2285
:1018B00013401E3A9A401300802216498B50BFF302
:1018C0004F8FBFF36F8F0423FB56002B08DB1F22C3
:1018D00013401E3A9A401300C02252000D498B500B
:1018E0000423FB56002BCCDB1F2213401E3A9A40E8
:1018F0001300084A1360C4E70A256D42C1E7C046D9
:10190000B8580000F9160000D1170000A517000014
:101910008D17000000E100E0C268137802210B433C
:10192000DBB21370537ADB09FCD1704710B50F4B53
:101930001868C3680268002A05D09A79D20703D4D0
:101940009A79920708D410BD1A7A01210A40997138
:10195000036800219847F6E7197A490801220A40EE
:1019600002219971036801399847ECE7500400207F
:1019700010B5084A536802210B435360064B984741
:10198000064B98470820064CA047064B9847F7207F
:10199000A04710BD00400041D51D0000691F000098
:1019A0003D1C0000C51F0000C379DB09FCD1C379D1
:1019B000DB09FCD103789B0707D500230370C379AB
:1019C000DB09FCD1C379DB09FCD101230370C379A6
:1019D000DB09FCD1C379DB09FCD183704A22427058
:1019E0000370C379DB09FCD10020704770B5050096
:1019F0000C00431E9841C0B249220449044B984749
:101A00002C602000034B984770BDC046CC580000A6
:101A1000F9160000A91900000268137802210B438F
:101A2000DBB21370D379DB09FCD170470268D3793C
:101A3000DB09FCD113785B0801201840704702686D
:101A40001181D379DB09FCD170470000224B5B7810
:101A5000DB09FBD1204B5B78DB09FBD11E4B1B78EC
:101A60009B070AD500221C4B1A701B4B5B78DB09C5
:101A7000FBD1194B5B78DB09FBD10122164B1A70A5
:101A8000154B5B78DB09FBD1134B5B78DB09FBD192
:101A9000114B00229A705A605A61104A9A61802252
:101AA0005204DA611A7802210A43D2B21A700A4B40
:101AB0005B78DB09FBD10A4B102280215A50BFF31F
:101AC0004F8FBFF36F8F0131FF315A501A60054BB2
:101AD000186000207047C046001800402200230311
:101AE00000E100E05404002030B50023032B0BD8A4
:101AF000DC00104A12195268824202D00133DBB274
:101B0000F4E70C4BE25C00E0FF22FF2A0ED0002934
:101B100006D101239340084A93601361002030BD31
:101B200001239340044AD3600020F8E70D2040428F
:101B3000F5E7C046E458000000180040F0B583B057
:101B4000274B1A69D9680A400192019A1A61254BFC
:101B50001868431E9841C0B2D2222349234B9847AC
:101B600001256D4231E0DB00214AD3185D686B1C12
:101B700003D01C4B1B68280098470122A240019B00
:101B80009343019301981B4B9847013844B2631C5F
:101B900014D00426002001E00139CEB2B042E6D8CC
:101BA00033185B10D9B2FF221340DF00104ABA5C31
:101BB000A242D8D0F0DA0131C8B2EFE7084B1A6977
:101BC000D9680A400192019A1A61019B002B05D045
:101BD0000198084B9847013844B2D8E703B0F0BDEC
:101BE000001800405404002004590000F9160000B9
:101BF000E45800004D390000002306E059000D4A6A
:101C0000895A0D4A11810133DBB21E2BF6D900230C
:101C100007E09900074A5218116C074A51600133D6
:101C2000DBB20B2BF5D9044B00225A61013A1A6141
:101C3000002070471C59000000040042C30709D56A
:101C4000114B802252009A60104A5A600E4B5B780A
:101C5000DB09FBD1830709D50B4B0222FF329A60C7
:101C60000B4A5A60084B5B78DB09FBD1030709D5A7
:101C7000054B0422FF329A60064A5A60024B5B7899
:101C8000DB09FBD17047C046000C0040000709008B
:101C90000107090003050900054B9C4660448023A9
:101CA0001B01984201D8012070470020FCE7C04684
:101CB0000000C0FF70B505000C0000281CD0104BC0
:101CC00099421BD0002046220E490F4B98472C61A9
:101CD00062689E23134063600C4B1D600C4B2022F6
:101CE00080215A50BFF34F8FBFF36F8F0131FF3107
:101CF0005A501A60002070BD0020E4E70120E2E79E
:101D0000004000418C590000F916000058040020E2
:101D100000E100E070B54C0805692E7DF607FBD5A3
:101D20002020FF302883C80707D5013401208143D4
:101D30000988090A1170012103E0002101E0023144
:101D40002C0099420BD2651C6400208880B250544C
:101D50005C1EA142F3D24C1C000A1055EFE770BD87
:101D600010B50A4B186803691A7DD20704D50368B9
:101D7000002B00D0984710BD1A7D9207FBD5022298
:101D80001A754368002BF6D09847F4E758040020F2
:101D9000F8B506000C0017001D0008000B4B984713
:101DA00000280CD06019094B984700280AD02B0056
:101DB0003A0021003000064CA0470020F8BD0E205C
:101DC0004042FBE70E204042F8E7C046991C000065
:101DD000151D0000064B1A7AD2B21A725A7AD2B284
:101DE0005A729A7AD2B29A72DA7AD2B2DA727047A8
:101DF000000400401C4B9B7ADB09FBD11A4B9B7AF9
:101E0000DB09FBD1184B1B889B070CD5164A13889E
:101E100002218B431380144B9B7ADB09FBD1124BBD
:101E20009B7ADB09FBD1104A138801210B439BB23B
:101E300013800D4B9B7ADB09FBD10B4B9B7ADB09A3
:101E4000FBD1094B8022D2015A80F02212019A6103
:101E5000054B9B7ADB09FBD1034B0122DA71FD3282
:101E60009A7100207047C046001400402A4BDB697D
:101E7000DB071BD4284BDB699B07FBD1264B1B6878
:101E80009B070CD5244A136802218B431360224B15
:101E9000DB699B07FBD1204BDB699B07FBD40D2241
:101EA0001D4B1A601C4BDB699B07FBD11A4BDB698E
:101EB000DB07FBD4194A184B1A60174BDB699B07E9
:101EC000FBD1154A136816490B401360124BDB69AE
:101ED0005B07FBD110490B68124A1A40C0239B03D1
:101EE00013430B600C4BDB695B07FBD18022920232
:101EF000094B5A60084BDB695B07FBD1064A672335
:101F00001373136802218B430B431360024BDB698D
:101F10009B07FBD100207047001800420C000030E6
:101F2000FFFFFCFFFFFFCFFF044A136802210B43B2
:101F30001360024BDB699B07FBD17047001800421E
:101F40000BE00178074B9962064B1B7E5B07FBD5C4
:101F5000044B9B6A0370013011004A1ED2B2002963
:101F6000EFD1704700180042144A0E239382116A81
:101F7000090C136A9B0F9B070904114801400B438E
:101F800002210B43136293690B439361137F1D314D
:101F90000B401377094BDB689B07FBD5074A938AF5
:101FA00080210B439BB29382044BDB681B07FBD55C
:101FB000024A136A80210B431362704700080040F5
:101FC0000000FF0F8622D2011C4B5A8002221C4BBC
:101FD0009A841B4BDB68DB06FBD51A4A184BDA6286
:101FE000194B1B689B0E3F2B20D09B028022920036
:101FF0001343134A936206239384938C5B0718D58B
:102000000F4BDA68D0231340D02BF9D10C4A938CB4
:1020100080210B439BB29384084B5B78DB09FBD197
:10202000074A936902218B4393617047FC23DB01CC
:10203000DFE7034BDB68DB06FBD5E7E7000C00407E
:1020400000080040B805010424608000334B9B6801
:10205000DB071BD4314B9B689B07FBD12F4B1B68C5
:102060009B070CD52D4A136802218B4313602B4B21
:102070009B689B07FBD1294B9B689B07FBD40122E4
:10208000264B1A60254B9B689B07FBD1234B9B6813
:10209000DB07FBD4C0229200204B1A601F4B9B68C9
:1020A0009B07FBD17F221D4B5A641C4B9A68F0237F
:1020B0001B011A42F9D17F22184B9A64174B9A6878
:1020C000F0231B011A42F9D17F22144BDA64134B1F
:1020D0009A68F0231B011A42F9D17F220F4B1A652F
:1020E0000E4B9A68F0231B011A42F9D1FE220B4BCA
:1020F0001A640A4B9B681B06FBD4084A01239362AF
:10210000033B5362136802218B430B431360034B61
:102110009B689B07FBD100207047C046002000420F
:102120001E4B9B68DB071BD41C4B9B689B07FBD19A
:102130001A4B1B689B070CD5184A136802218B4366
:102140001360164B9B689B07FBD1144B9B689B0746
:10215000FBD40122114B1A60104B9B689B07FBD1EB
:102160000E4B9B68DB07FBD40D4A0C4B1A640B4BE0
:102170009B681B06FBD4094B802252041A62012281
:102180009A62033A5A621A6802218A430A431A6021
:10219000024B9B689B07FBD1002070470024004244
:1021A000FFFF00002A4B9B68DB071BD4284B9B6872
:1021B0009B07FBD1264B1B689B070CD5244A136851
:1021C00002218B431360224B9B689B07FBD1204B62
:1021D0009B689B07FBD401221D4B1A601C4B9B681C
:1021E0009B07FBD11A4B9B68DB07FBD4C0229200F4
:1021F000174B1A60164B9B689B07FBD17F22144B31
:102200005A64134B9A68F0231B011A42F9D17F22BA
:102210000F4B9A640E4B9A68F0231B011A42F9D1B6
:10222000FE220B4B1A640A4B9B681B06FBD4084A20
:1022300001239362033B5362136802218B430B43D8
:102240001360034B9B689B07FBD100207047C0467F
:1022500000280042154BDB7BDB09FBD1134B1B88AD
:102260009B0708D5114A138802218B4313800F4B1B
:10227000DB7BDB09FBD101220C4B1A800B4BDB7B98
:10228000DB09FBD1094BD12292001A807F221A76FA
:102290005A767F321A75012159731A731A880131DF
:1022A0008A430A4392B21A8000207047002C0042F1
:1022B000154BDB7BDB09FBD1134B1B889B0708D538
:1022C000114A138802218B4313800F4BDB7BDB0900
:1022D000FBD101220C4B1A800B4BDB7BDB09FBD1C2
:1022E000094BD12292001A807F221A765A767F32C9
:1022F0001A75012159731A731A8801318A430A43E6
:1023000092B21A800020704700300042154BDB7BF0
:10231000DB09FBD1134B1B889B0708D5114A138897
:1023200002218B4313800F4BDB7BDB09FBD10122A6
:102330000C4B1A800B4BDB7BDB09FBD1094BD12209
:1023400092001A807F221A765A767F321A750121FE
:1023500059731A731A8801318A430A4392B21A8058
:102360000020704700340042154BDB7BDB09FBD1BA
:10237000134B1B889B0708D5114A138802218B43F6
:1023800013800F4BDB7BDB09FBD101220C4B1A8046
:102390000B4BDB7BDB09FBD1094BD12292001A806E
:1023A0007F221A765A767F321A75012159731A7371
:1023B0001A8801318A430A4392B21A80002070477A
:1023C00000380042154BDB7BDB09FBD1134B1B882C
:1023D0009B0708D5114A138802218B4313800F4BAA
:1023E000DB7BDB09FBD101220C4B1A800B4BDB7B27
:1023F000DB09FBD1094BD12292001A807F221A7689
:102400005A767F321A75012159731A731A8801316D
:102410008A430A4392B21A8000207047003C00426F
:102420002C4BDB69DB071BD42A4BDB699B07FBD1F9
:10243000284B1B689B070CD5264A136802218B4347
:102440001360244BDB699B07FBD1224BDB699B07A5
:10245000FBD405221F4B1A601E4BDB699B07FBD187
:102460001C4BDB69DB07FBD41B4A1A4B1A60194B68
:10247000DB699B07FBD1174A136818490B401360AF
:10248000144BDB695B07FBD112490B68144A1A40F5
:1024900080235B0313430B600E4BDB695B07FBD1AF
:1024A000104A0C4B5A600B4BDB695B07FBD1094BA5
:1024B0000D4A9A8184229A75093A1A751A6802217E
:1024C0008A430A431A60034BDB699B07FBD1002058
:1024D0007047C0460014004204000040FFFFFCFFAC
:1024E000FFFFCFFF40000200A7EAFFFF00220A4BD8
:1024F0001A700A4B1B6B1B0609D4084B02325A7127
:1025000000215967064919670649D9661A710022E0
:10251000014B5A807047C0466004002000240042EE
:10252000FFFFFF00F4A80300F0B5CE46474680B594
:1025300087B00122844B1A76834B5B7EDB09FBD18B
:10254000814B598B89B2814B59801B78DBB2012BAF
:1025500007D0022B00D172E007B00CBC9046994620
:10256000F0BD01209423C022D205D050784B99426F
:102570000FD90222754B1A7076480022002302659B
:1025800043658265C3650266436604694569826680
:10259000C366714B99425ED86C4B1B78DBB2012B42
:1025A0005CD0022BD8D19723DB00591A0E00CF172D
:1025B000684B98461A685B6868498946300039005C
:1025C000C8470090019143469868D9681C6D5D6DBD
:1025D00032003B0012196B41C84743469A6DDB6DD0
:1025E00012184B410492059343469869D969320009
:1025F0003B00121BAB41C84704000D004346986ADC
:10260000D96A1A6E5B6EC8470019694143461A6A57
:102610005B6A534CA0470290039143469A6CDB6C73
:10262000009C019DAB4202DC2ED1A2422CD9494B29
:102630009C6CDD6C009A019BA41A9D4126E0012050
:102640009823C022D205D050464B9942A1D80122EE
:102650003E4B1A709DE7444B98477DE7063143484F
:10266000434B98470300E133FF339BB2414A934207
:1026700008D9902040000021344A9060D160354A4A
:10268000136769E73C4BF4E700240025049A059B97
:10269000AB4204DC01D1A24201D8049C059D2D4B24
:1026A0001A6C5B6C0199994203DC0AD10099914242
:1026B00007D9284B1A6C5B6C00980199121A8B4150
:1026C00001E000220023AB4204DC01D1A24201D888
:1026D00022002B001F4C26656765A265E365029802
:1026E000039920666166009E019FA06EE16E361818
:1026F0004F4192197B410298039980185941A26B6E
:10270000E36B994202DC04D1904202D9114B986BE1
:10271000D96B104B1A6B5B6B8B420FDD0D4B186B3B
:10272000596B0C4CA066E166226963690C4DA847A1
:10273000064B9860D960104B23670DE78B42F0D1B0
:102740008242EBD8EDE7C046004000426004002022
:10275000B7040000180000204F050000F938000001
:10276000B1380000F9020000ED240000000204006E
:10277000C5350000BE030000BF03000010B50122F4
:10278000284BDA62284A138A01339BB213821378EA
:10279000002B16D013001A8A1B8A1B0714D0224B59
:1027A0009868D968214B1C6F1E4B1B6B1B0607D406
:1027B0001C4B02225A7158671D491967DC661A7151
:1027C00010BD1C4B9847FBE7174B9A68DB6892B229
:1027D000552A18D9144B9A68DB681449086F1149B7
:1027E000096B0906ECD40F4902244C714A6791B277
:1027F000552906D913320B4B1A67D86602221A7173
:10280000DEE70B4AF7E7074B1B6B1B06D8D4054BDB
:1028100002225A7156215967133119670649D96640
:102820001A71CDE700240042600400201800002047
:10283000FFFFFF00ED240000BF030000064B002255
:102840001A8201321A709020400000219860D960ED
:10285000024A034B1A67704760040020F4A8030083
:1028600018000020F8B5C026F605042373601A4B43
:102870001A4A9A62C02212069A624220195C012406
:10288000A14301252943C9B219541138195C0F27F6
:10289000B9432943C9B2195408217160104999629A
:1028A0009A6243215A5CA2432A43D2B25A541A5C18
:1028B00034390A4010210A43D2B21A54094D002378
:1028C000002201212800084EB047084BDC7500218A
:1028D0002800074B9847F8BD004400410400004021
:1028E000080000407404002039030000004000424A
:1028F000F9020000F0B5D6464F464646C0B53F4AFD
:102900003F4B1A643E4B9B681B06FBD400223C4B9A
:102910009A643B4B9A68F0231B011A42F9D1394A59
:10292000374B5A64364B9A68F0231B011A42F9D18F
:10293000354A334BDA63324B9A68344B1A42FAD138
:10294000C021C90580248C618C60314B314A9A6268
:10295000C022120692469A624727D85D4022104351
:10296000C0B2D855D85D0125A8430126B4466646B5
:102970003043C0B2D855143FD85D0F2630401043C5
:10298000C0B2D8558020C0058046982046460E50DB
:102990005537CE51A8201E501F4E1E50DE26B04681
:1029A0009E5D3243D2B246469A559A5DAA43664628
:1029B0003243D2B246469A55BF2294469A5CCF3EE5
:1029C000B2430526B04646463243D2B266469A55D1
:1029D000CD51124A1A5052461A50114B80225202BF
:1029E0001A51BFF34F8FBFF36F8FC02149005A5068
:1029F0001A601CBC90469946A246F0BDF4A803009C
:102A000000240042FFFFFF0002000200FF0F7F00D2
:102A10000044004180000040004000C00100004030
:102A200000E100E010B5034B9847034B9847034B78
:102A3000984710BD8D050000F528000065280000AE
:102A400010B50B4B588880B20A4B98470A4B9847F1
:102A50000A4A0B4B0B4CA0470B4A0C4B0C4CA047A3
:102A600000220C4B0C4CA0470C4B984710BDC046A5
:102A700060040020813F000059510000D0A3D3D052
:102A8000A3D3C03F2D460000295C8FC2F528EC3F40
:102A90002D4B0000000028400D400000FD510000BB
:102AA00080225203C023DB059A61704710B5014BA9
:102AB000984710BDED24000010B50A4A5421535C1C
:102AC00040200343DBB25354C023DB05802149037C
:102AD00099608020C0059062034890625961034B61
:102AE000984710BD00440041100000C03D28000080
:102AF00010B54005400D014B984710BD1D0B00005F
:102B0000F8B50024002501E00134E4B2072C21D8F7
:102B10006B1CDBB2104A505D0235EDB2D65CF6B2EA
:102B20000E4B5843FF210E4B98470E4B9C4660447A
:102B300080B263001B199A000B4B9B189B7A002BE9
:102B4000E2D1094917008A1810819671C919012329
:102B50008B72D9E7F8BDC046B8040020CC1C000039
:102B6000D93600001D0400008C00002010B50D4A6D
:102B700013780133DBB21370DB0602D00A4B98479F
:102B800010BD0A4B98470A490A4B98470A4B984789
:102B90000A4B98470A4B98470A4B984780B20A4B12
:102BA0009847EBE772040020E9090000412A000081
:102BB00000002041C93900005951000019350000BA
:102BC000FD51000061390000D909000010B5022351
:102BD0001E4A8021C9031E481E4CA0471E495B2384
:102BE000CA5C40200243D2B2CA545C228B5C0343CD
:102BF000DBB28B5419491020194CA04719491120F8
:102C0000A04719491520A0470120184B9847184B99
:102C10009847184B9847184B9847184B9847184BAC
:102C20009847184A136A1B021B0AC02109060B4366
:102C300013621548154B4360136A1B021B0A0B43B2
:102C40001362002383600733036010BD200500205A
:102C5000CC040020911D000000440041AD2A00007A
:102C6000AD150000B92A0000A12A00001D0B0000CC
:102C7000290B0000252A000061080000FD34000037
:102C80003109000000ED00E010E000E09F86010047
:102C900010B5024B9847024B9847FEE755060000D7
:102CA000CD2B0000F0B5CE46474680B542091F2720
:102CB0003840012425008540D201C023DB05D61809
:102CC000B5614B0939408C40DB019946C027FF05AF
:102CD0004F447C61B5602E04360C8023DB059C4696
:102CE0001E43124B9846424496622D0CC02636066F
:102CF00035439562BC6025042D0C63461D434B464D
:102D000043449D62240C34439C6212184032107874
:102D100040242043C0B210705B1840331A7822431D
:102D2000D2B21A700CBC90469946F0BD00440041E6
:102D3000F8B5304B8022120280215A50BFF34F8FDA
:102D4000BFF36F8F0131FF315A502B4A2B4BDA639F
:102D50002A4B9A682A4B1A42FAD109210820294C99
:102D6000A0470B210A20A047274B4820195C0126C9
:102D7000B14301221143C9B219541438195C0F2709
:102D8000B94304242143C9B219544924195DB143FC
:102D90001143C9B21955195C0F252940402421431C
:102DA000C9B219544A21585CB0431043C0B25854B8
:102DB0003524185DB84305210843C0B218554B208F
:102DC000195CB1431143C9B219541A5D2A4050210C
:102DD0000A43D2B21A55074AC320800013581B0277
:102DE0001B0A8021C9050B43135080231B0213606B
:102DF000F8BDC04600E100E002000A0000200042E9
:102E0000FF0F7F00A52C00000044004170B5224B4D
:102E10008022920280215A50BFF34F8FBFF36F8FF1
:102E20000131FF315A501D4A1D4BDA631C4B9A6821
:102E30001C4B1A42FAD10D210C201B4B98471B4BFF
:102E40004C22995C0125A94301242143C9B299541C
:102E50003620195C3D3A914304221143C9B21954FA
:102E60004D215A5CAA432243D2B25A541A5C3E39CD
:102E70000A4040210A43D2B21A54074BC4208000B2
:102E80001A580B4911408022D2010A431A5080225D
:102E900092021A6070BDC04600E100E0020002002C
:102EA00000280042FF0F7F00A52C000000440041D5
:102EB000FF00FFFFF8B5040017001D0000280ADB23
:102EC0001F22024001239340802267488350BFF3B2
:102ED0004F8FBFF36F8F002C07DB1F22224001238F
:102EE0009340C02252006048835002238B71E9B2A4
:102EF000FEB230005D4B98477F091F203040069B93
:102F0000013361D0FF223A40D30159498C466344D2
:102F10001B18403319780127B9433943C9B21970D6
:102F2000F3075ED44008D201514B9C46624412180C
:102F3000303213780F218B4319000F23069803407A
:102F40000B4313706A09EDB21F202840079B013321
:102F500056D0FF231A40D101454B9C4661440918C5
:102F600040310B780126B3433343DBB20B70EB07E0
:102F700053D44008D2013E4B9C4662441218303272
:102F800013780F218B4319000F23079803400B433D
:102F90001370002C50DBA3083348C0339B00195832
:102FA00003222240D200FF259540A94340259540A9
:102FB0002A000A431A50002C05DB1F231C401E3B2D
:102FC000A340294A1360F8BDFF221740FF01284B98
:102FD0009C466744381840300378FE3A93430370A8
:102FE000B0E743086946097ED0016044C01830301C
:102FF00003780F2213400901CAB213430370A1E7FB
:10300000FF231340DB011A4A9446634418184030EA
:103010000378012293430370BBE740086B46197F96
:10302000D20162441218303213780F200340090194
:10303000C9B20B431370ACE7E2B20F231000134088
:10304000083B9B0806339B000A4A94466344596830
:1030500003220240D200FF20904081434020904054
:1030600002000A435A60A6E700E100E0A52C000038
:103070000044004100ED00E010B582B0174B019311
:10308000174B00931323122216491220164CA04707
:10309000164B0193164B009323232222154915202A
:1030A000A047154B0193154B00932923282214495F
:1030B0001320A047134B0193134B00932B232A2279
:1030C00012491420A047124B0193124B009337234F
:1030D000362211491620A04702B010BD040013008B
:1030E00004001200002C0042B52E00000400230052
:1030F00004002200003800420400290004002800D7
:103100000030004204002B0004002A00003400427A
:103110000400370004003600003C004210B584B0C3
:1031200001222C4BDA622C4B9B7A002B06D02A4BC7
:103130001A899A809A799A7000229A72264C20886D
:10314000A388C0182549264B984789B22180C90910
:103150004900244BC95EA278531C4B431B12DBB2BF
:1031600069460B709B1A013B4B700B8803AA1380B6
:1031700001A90B80DBB2174A93674B78D367A37D15
:10318000002B05D0A28A2282A27CA2730022A27503
:10319000114CA089238AC0181049114B984789B255
:1031A000A181C90949000F4BC95EA27B531C4B4347
:1031B0001B12DBB269460B709B1A013B6A464B70CF
:1031C00001A913880B80DBB2024A13674B7853675F
:1031D00004B010BD002000428C00002080C100001F
:1031E000A5380000EC00002010B584B00122184B77
:1031F000DA622223174AD35C002B07D01300128C0B
:103200009A839A7F9A76002122229954114C208B1E
:10321000A38BC0181049114B984789B22183C90963
:1032200049000F4BCA5EA17E4B1C53431B12DBB2FD
:1032300001AA13705B1A013B537002A913880B801B
:10324000DBB2034A13674B78536704B010BDC04626
:10325000002800428C00002080C10000A53800003A
:10326000EC00002010B584B00122194B9A732E2374
:10327000184AD35C002B09D01300928D1A852A229C
:10328000995C043A9954002108329954114CA08C4D
:10329000238DC0181049114B984789B2A184C909E0
:1032A00049000F4BCA5E2623E15C4B1C53431B12A3
:1032B000DBB201AA13705B1A013B537002A9138899
:1032C0000B80DBB2024A13764B78537604B010BD04
:1032D000002C00428C00002080C10000A5380000B6
:1032E000EC00002010B584B00122194B9A733A23E8
:1032F000184AD35C002B09D01300128F9A8636220D
:10330000995C043A9954002108329954114C208E4A
:10331000A38EC0181049114B984789B22186C9095C
:1033200049000F4BCA5E3223E15C4B1C53431B1216
:10333000DBB201AA13705B1A013B537002A9138818
:103340000B80DBB2024A13764B78537604B010BD83
:10335000003800428C00002080C10000A538000029
:10336000EC00002010B584B001221B4B9A73462359
:103370001A4AD35C002B0BD013004422995A043A0A
:1033800099520232995C043A9954002108329954B6
:10339000124CA08F4023E35AC0181149114B984793
:1033A00089B2A187C90949000F4BCA5E3E23E15C7F
:1033B0004B1C53431B12DBB201AA13705B1A013B77
:1033C000537002A913880B80DBB2034A13764B7843
:1033D000537604B010BDC046003000428C0000207F
:1033E00080C10000A5380000EC00002030B585B099
:1033F00001221B4B9A7352231A4AD35C002B0BD029
:1034000013005022995A043A99520232995C043AB4
:103410009954002108329954124C4825605B4C2382
:10342000E35AC0181049114B984789B26153C90932
:1034300049000F4BCA5E4A23E15C4B1C53431B12ED
:10344000DBB201AA13705B1A013B537002A9138807
:103450000B80DBB2024A13764B78537605B030BD51
:10346000003400428C00002080C10000A53800001C
:10347000EC00002030B585B001221B4B9A735E230F
:103480001A4AD35C002B0BD013005C22995A043AE1
:1034900099520232995C043A9954002108329954A5
:1034A000124C5425605B5823E35AC0181049114B45
:1034B000984789B26153C90949000F4BCA5E562328
:1034C000E15C4B1C53431B12DBB201AA13705B1A65
:1034D000013B537002A913880B80DBB2024A1376BA
:1034E0004B78537605B030BD003C00428C00002084
:1034F00080C10000A5380000EC00002010B5034B8F
:103500009847034B9847034B984710BD312D000057
:103510000D2E000079300000F8B5264A4B005B0DF7
:103520009A1807000C00132A10DC002A39DB224B02
:1035300013410B4230D0802424031441002064182E
:103540009C430600250030002900F8BD332A0CDD1D
:1035500080230600DB000D009A42F4D102000B002C
:1035600000F054FD06000D00EDE7144D0600AC46DA
:10357000012563446D42DD40AC4663460D000342C5
:10358000E1D033239A1A323B93401818874200D96E
:103590004C1C63469843D4E706000D000028CAD1AE
:1035A000D1E7C90FCC070020531CCAD1044B1C43E0
:1035B000C7E7C04601FCFFFFFFFF0F00EDFBFFFF69
:1035C0000000F03F002243088B4274D303098B4272
:1035D0005FD3030A8B4244D3030B8B4228D3030CE3
:1035E0008B420DD3FF22090212BA030C8B4202D385
:1035F0001212090265D0030B8B4219D300E0090AAD
:10360000C30B8B4201D3CB03C01A5241830B8B42B5
:1036100001D38B03C01A5241430B8B4201D34B039E
:10362000C01A5241030B8B4201D30B03C01A524103
:10363000C30A8B4201D3CB02C01A5241830A8B4288
:1036400001D38B02C01A5241430A8B4201D34B0271
:10365000C01A5241030A8B4201D30B02C01A5241D5
:10366000CDD2C3098B4201D3CB01C01A5241830989
:103670008B4201D38B01C01A524143098B4201D3C3
:103680004B01C01A524103098B4201D30B01C01AEE
:103690005241C3088B4201D3CB00C01A5241830868
:1036A0008B4201D38B00C01A524143088B4201D395
:1036B0004B00C01A5241411A00D2014652411046F5
:1036C0007047FFE701B5002000F0F0F802BDC046EA
:1036D0000029F7D076E7704703460B437FD40022DA
:1036E00043088B4274D303098B425FD3030A8B4296
:1036F00044D3030B8B4228D3030C8B420DD3FF2200
:10370000090212BA030C8B4202D31212090265D0CD
:10371000030B8B4219D300E0090AC30B8B4201D380
:10372000CB03C01A5241830B8B4201D38B03C01AC7
:103730005241430B8B4201D34B03C01A5241030B3E
:103740008B4201D30B03C01A5241C30A8B4201D3EF
:10375000CB02C01A5241830A8B4201D38B02C01A9A
:103760005241430A8B4201D34B02C01A5241030A11
:103770008B4201D30B02C01A5241CDD2C3098B42F6
:1037800001D3CB01C01A524183098B4201D38B0173
:10379000C01A524143098B4201D34B01C01A524116
:1037A00003098B4201D30B01C01A5241C3088B425B
:1037B00001D3CB00C01A524183088B4201D38B0046
:1037C000C01A524143088B4201D34B00C01A5241E8
:1037D000411A00D201465241104670475DE0CA0FBF
:1037E00000D04942031000D34042534000229C467F
:1037F00003098B422DD3030A8B4212D3FC22890189
:1038000012BA030A8B420CD3890192118B4208D35E
:10381000890192118B4204D389013AD0921100E0C0
:103820008909C3098B4201D3CB01C01A52418309D4
:103830008B4201D38B01C01A524143098B4201D301
:103840004B01C01A524103098B4201D30B01C01A2C
:103850005241C3088B4201D3CB00C01A52418308A6
:103860008B4201D38B00C01A5241D9D243088B42FC
:1038700001D34B00C01A5241411A00D2014663469F
:1038800052415B10104601D34042002B00D5494203
:10389000704763465B1000D3404201B5002000F042
:1038A00005F802BD0029F8D016E770477047C046FA
:1038B000002B15D1002A13D1002906DB01DC0028DA
:1038C00006D00020C043410802E080210906002004
:1038D00007B4024801A14018029003BDD1FFFFFFC9
:1038E00003B4684601B5029800F052F8019B9E4669
:1038F00002B00CBC7047C046F0B5CE464746150432
:103900002D0C2E0080B50704140C3F0C9946030CB7
:103910007E435D43674363437F19340CE4199C463F
:10392000A54203D980235B029846C4444B465143C9
:1039300043433604360C250C24046544A419591855
:10394000491920000CBC90469946F0BD10B50023E3
:10395000002802D001F034FD431C180010BDC04601
:103960009E2110B5C905041C01F002FD002803D1F9
:10397000201C00F0E5FA10BD9E21201CC90500F0B6
:1039800043F900F0DDFA80231B069C466044F2E711
:10399000F0B583B016001F000090019101F030FDDA
:1039A00004000D0002000B0030003900FFF7A4FFF7
:1039B000009A019B121A8B41089920000A604B6003
:1039C000290003B0F0BDC046F8B557464E464546FF
:1039D000DE46E0B54702460088467F0A360EC40F31
:1039E000002E47D0FF2E24D0FB008027FF041F436A
:1039F000002399469A467F3E43465D025800DB0FFE
:103A00006D0A000E984643D0FF283BD0EB0080257E
:103A10000022ED041D437F383618731C41469B4637
:103A20004B46614013430F2B64D875489B00C35825
:103A30009F46002F42D108239946063BFF269A460F
:103A4000DAE74146022A28D0032A00D1CEE0012A33
:103A500000D0ACE0114000200022CCB24002D205E0
:103A6000400AE407104320433CBC90469946A246D6
:103A7000AB46F8BD002F15D104239946033B002621
:103A80009A46B9E7FF200222002DC5D00322C3E7E2
:103A9000002D19D100200122BEE70124FF220C4095
:103AA0000020DBE7380001F06DFC7626431F9F40C5
:103AB00000237642361A99469A469DE70C2399468A
:103AC000093BFF269A4697E7280001F05BFC431F5D
:103AD0009D4076235B42181A00229DE78020002437
:103AE000C003FF22BAE73D005246ABE73D0021008C
:103AF0005246A7E73B0C9C462A04120C2B0C1400E0
:103B0000604665463F043F0C7C4342435D437B4334
:103B1000270C9B18FF18BA4203D980235B029C46EE
:103B2000654424043A04240C121993015C1EA34139
:103B30003F0C920E7D191A43AD0115432B0104D59C
:103B400001235E466A081D40154332007F32002A79
:103B500025DD6B0704D00F232B40042B00D0043548
:103B60002B0103D53200274B80321D40FE2A94DC06
:103B70000124A801400AD2B20C406FE78020C003A4
:103B8000074207D0054205D128434002400A444677
:103B9000FF2263E738434002400AFF225EE7012428
:103BA000A31A1B2B05DD0C400022002056E75E46C1
:103BB000CBE72A002020DA40C31A9D402B005D1E6F
:103BC000AB4113435A0704D00F221A40042A00D0F5
:103BD00004335A0104D5012401220C4000203DE7A2
:103BE00001249B01580A0C40002237E78020012461
:103BF000C00328434002400A0C40FF222EE7C04683
:103C0000AC590000FFFFFFF7F0B54F46D6464646D9
:103C10004400C0B5C20F47024802400A84466646C7
:103C20007B0A4800C90F9A46240E1500DB00000EDF
:103C30008946F600FF2800D18FE001214F464F4012
:103C40003900914266D0221A002A00DC9DE000284B
:103C50003DD1002E00D18BE0511E002900D0B5E0EF
:103C600001249B1B5A0144D59B019F09380001F098
:103C700089FB05388740844200DD96E0041B3A004A
:103C800020200134E240041BA7403B005F1EBB41E3
:103C9000002413435A0704D00F221A40042A00D0EC
:103CA00004335A0127D50134FF2C00D179E00122D9
:103CB0009B015B0AE4B22A405B02E405580AD20782
:103CC000204310431CBC90469946A246F0BDFF2CF1
:103CD000E0D08021C9040E431B2A7BDC3100202068
:103CE000D140821A9640721E96410E439B1B5A0188
:103CF000BAD45A07D0D10122DF082A40FF2C33D191
:103D0000002F00D1A8E08023DB033B435B025B0A6A
:103D1000FF24D1E7211A00294CDD00282AD0FF2CEE
:103D2000B8D08020C00406431B2900DDAFE030007E
:103D30002027C840791A8E40711E8E4106439B1978
:103D40005901D6D50134FF2C00D185E001227A49F2
:103D50001A405B080B4013439CE7002E00D070E72D
:103D60006BE73B1EC5D100227B025B0AE4B2A3E7EE
:103D700014008FE7002E4DD0481E002857D19B1904
:103D800001245A01B5D50224E0E7002A25D1621C9E
:103D9000D2B2012A72DD9F1B7A0135D5F71A0D00C8
:103DA00064E7012200232A4086E73B00634A241A85
:103DB00013406FE700296CD1611CC8B201284EDDA9
:103DC000FF2949D09B195B080C0063E7FF2A41D00B
:103DD0000A0081E701269B1B89E7002C1CD0FF28E5
:103DE00021D08024E404524223431B2A00DD96E0C4
:103DF0001C002025D440AA1A93405A1E9341234305
:103E0000F31A04000D002DE7002F00D02EE700224A
:103E10000024A9E70C003DE7002B58D0D243002A2C
:103E2000EED0FF28E1D13300FF240D0032E7FF2957
:103E300010D0010078E7002B6ED0FF24002E00D1B7
:103E400028E780225146D203114203D06146114235
:103E500000D13300FF241DE7FF2400232CE7002CB2
:103E6000E9D1002B63D0002E00D113E79B195A0132
:103E700000D43EE7314A0C0013400BE7002C1ED162
:103E8000002B2FD1002E4FD033000D0002E701266A
:103E900055E7002C1FD1002B43D0C94300290BD07C
:103EA000FF2839D01B2944DC1C002027CC40791A7C
:103EB0008B40591E8B4123439B19040040E7002B84
:103EC0001AD1002E24D180270022FF031BE73300E4
:103ED00004000D00DEE6FF281ED08024E4044942E1
:103EE0002343DFE7002E00D1D4E69F1B7A0100D4E4
:103EF00037E7F31A0D00CDE6FF24002E00D1C9E606
:103F000080225046D2031042A4D060461042A1D174
:103F100033000D00FF24BDE63300FF24BAE6012381
:103F20006EE733000400B5E6002700221CE73300EB
:103F3000B0E60123C0E7C046FFFFFF7DFFFFFFFBA8
:103F400041024300C20F490A1B0E00207E2B0DDDEB
:103F50009D2B0CDC802000040143952B0ADC96206D
:103F6000C31AD9404842002A00D108007047034BC9
:103F7000D018FBE7963B9940F4E7C046FFFFFF7F70
:103F800010B5041E27D001F0FDF99E231B1A962BB5
:103F90000ADC9622D21A94406402640ADBB26402FC
:103FA000DB05600A184310BD992B17DC9922D21A41
:103FB000002A27DD94402200134C1440510704D0FE
:103FC0000F210A40042A00D00434620112D4A40153
:103FD000640ADBB2E3E700230024E0E7B922210012
:103FE000D21A91400A00511E8A410521091ACC407B
:103FF0001443DBE7044B1C409F23A4011B1A640AF3
:10400000DBB2CCE72200D7E7FFFFFFFBF8B5454660
:10401000DE4657464E460C03E0B54E00C90F8846B3
:104020000D00610A440F0C43C70019035800DB0F51
:104030009B464B0A510F0B43760D400D1900D200E1
:10404000D84500D1AEE0351A002D00DCF6E000289E
:104050000FD1134300D1DBE06B1E002B00D037E102
:10406000BA1A9742BF41641A7F42E41B0126170027
:1040700024E0C64B9E424DD080231B041943382DAB
:1040800000DD07E11F2D00DD38E12020431B9A46AB
:104090000B0050468340994613004846EB401843B6
:1040A000030050468240501E8241E9401A43BA1A2A
:1040B000611A9742A441170064420C1B230262D587
:1040C0006402650A002D00D1DFE0280001F05AF9F2
:1040D0000300083B1F2B00DDD2E020223C00D21A57
:1040E0009D40D4409F4025439E4200DDC4E09E1B7E
:1040F000731C1F2B00DDF1E0202238002900D21AAA
:10410000D840914097402C000143781E8741DC4005
:1041100000260F437B0709D00F233B40042B05D01B
:104120003B1DBB42BF417F42E4191F0023022CD537
:10413000964B01369E4200D19AE04546944BFF08CB
:104140001C406007760564020743240B760D0021AE
:104150002403230B0C0D8F4A24051C431440330504
:1041600023435B00ED075B082B43380019003CBC80
:1041700090469946A246AB46F8BD6446044300D13A
:1041800011E2040067467B07C6D145466007FF0879
:104190000743E4087D4B9E4230D024037605240B70
:1041A000760DD4E7331A9A46002B78DD002831D0FB
:1041B00076488642AED08020000401435346382B17
:1041C00000DCE9E00A43511E8A410021D219BA42BB
:1041D000BF4109197C4217000C192302D3D56B4B40
:1041E00001369E4200D13AE10120694B1C407B0818
:1041F00007401F43E007074364088BE723003B4366
:1042000000D1CBE18022120314432403240B9EE748
:104210002E007FE70800104300D1B4E0581E0028AC
:1042200000D0DEE0BA18BA429B4164185B42E41841
:10423000170001262302A6D50226D5E7002D6ED150
:10424000701C4005400D012800DCF9E0B81A8446D6
:1042500087428041E51A40422D1A280200D489E0A5
:10426000D71BBA4292411C1B5242A51AD84629E7D5
:104270004546002400276AE7454CF61A2C4049E7DA
:104280003D002838854000272EE7380001F07AF8F5
:1042900020301DE70A43511E8A41002107E7002B09
:1042A00000D0F3E0701C43055B0D012B00DCADE09A
:1042B000364B984200D1D1E0BA18BA42BF416418D7
:1042C0007F42E419E707520817436408060021E714
:1042D0002E48854200D193E01D00D0E629001F3E04
:1042E000F140202B00D18DE04022D31A9D402F4376
:1042F0007D1EAF4100240F43002644E72B00080039
:10430000203BD8400300202D00D17DE04020451BFC
:10431000A9400A43511E8A4100211A43C7E6002ED4
:1043200050D01A4EB04257D080266B429946360480
:1043300034434B46382B00DDD6E01F2B00DD35E142
:104340002026F51A2600AE40B2463E00DE40AC46BE
:10435000350056462E436546AF407D1EAF41DC40DA
:104360003743D71BBA4292410C1B5242A41A060093
:10437000D846A3E6644667462C4300D0A2E6002553
:104380000026002706E71E00C4E6C046FF0700001F
:10439000FFFF7FFFFFFF0F801F2B63DC2020C31A6E
:1043A000080098409C46834653461000D8400300BE
:1043B0005846184363469A40531E9A415346024357
:1043C000D94003E726003E4306D0EB439946002B35
:1043D000C7D0944EB042ACD10C0017000600D846AE
:1043E00098E6904B9A450BD08246E7E6002800D02D
:1043F0009EE01800104300D1E9E01C001700D846E9
:10440000884E87E6002572E7002182E723003B43C0
:10441000002E00D0ABE0002B00D1E7E00B001343EF
:1044200000D177E6BA18BA42BF4164187F42E41956
:10443000230200D4F2E07C4B17001C40060069E622
:1044400020003843002ED1D100285BD11C0014433A
:1044500000D1A8E01C001700D8465BE60600002447
:10446000002797E650460B002038C3409946534634
:10447000202B00D195E0402350461B1A99400A4357
:10448000511E8A414B4600211A439FE6002E30D12F
:1044900026003E4367D0DB439A46002B1CD0614E7A
:1044A000B04260D05346382B00DD96E01F2B00DD74
:1044B0009FE02026F31A26009E409C46B3465346B2
:1044C0003E00DE4033005E461E4363469F407B1E37
:1044D0009F415346DC403743BF18974292416418CE
:1044E0005242A418060078E627437C1EA741002408
:1044F00037E74C4EB04236D080265B4236049A46AF
:104500003443CFE71800104300D103E6B81A8446BD
:104510006745AD41E01A6D42401B050200D42CE610
:10452000D71BBA4292411C1B5242A41AD846F1E54D
:104530001800104300D163E7F8086707074380209D
:10454000E4080003044208D0DD08054205D1D20882
:10455000590711430F002C00D8467B0FE4001C4381
:10456000FF00304ED6E50C0017000600D2E5002B08
:1045700038D00B00134300D142E7F8086707074320
:104580008020E40800030442E7D0CB080342E4D1D2
:10459000D208490711430F001C00DEE70027002462
:1045A000D5E500216BE700250027F3E54E46250001
:1045B000203EF5404B462E00202B2DD04025ED1AF5
:1045C000AC4027437C1EA74100243743C9E6802422
:1045D00000252403134E0027DCE527437C1EA7415A
:1045E000002479E70C0017000E4E93E50C0017002D
:1045F00090E556462300203EF34099465346202B33
:104600000ED0402356469B1B9C4027437C1EA7414F
:104610004B4600241F435FE70024D2E71700B2E5B2
:104620000024F2E7FF070000FFFF7FFFF0B55746C9
:104630004546DE464E46E0B50C0398464E00230B39
:1046400087B0070092469B46760DCD0F002E6BD0AB
:104650006D4B9E4235D080245B46420F2404DB0024
:1046600014431C43C3009946684BA3469C46002351
:1046700000276644029343461C035A00DB0F504652
:10468000240B520D984600D176E05F4B9A426DD0D4
:104690008023410F1B040B435C49E4008C461C4300
:1046A000C300002062444146B6186940721C019163
:1046B000944607430F2F00D9B0E0554ABF00D259A6
:1046C00097465B460343994600D087E000239B460C
:1046D000023308270293CEE742460192022867D0B0
:1046E000032800D10EE2012800D062E1002300245B
:1046F0000022994601990140CDB2002112030B0D11
:10470000120B1B051343434A240513401C4364004A
:10471000ED0764082C434846210007B03CBC904696
:104720009946A246AB46F0BD034399464FD05B463F
:10473000002B00D189E1584600F024FE03000B3B1A
:104740001C2B00DD7AE11D22D31A3A0001005C46E1
:10475000DA4008398C4013008F4023439B46B9460A
:1047600000232D4E0027361A029384E75346234335
:104770002AD10024022096E75346234320D0002C60
:1047800000D157E1200000F0FDFD03000B3B1C2B86
:1047900000DD49E11D21CB1A51460200D9405346A4
:1047A000083A944093400C431B4A121A00207AE7BF
:1047B0000125019B144C1D400023002299469CE7D3
:1047C0000024002201206EE7534603206BE70023FC
:1047D0009B4601330427002602934CE703238146BE
:1047E0000C27029347E780220023002512039946F5
:1047F000054C82E75C464B4602986FE75C464B46A9
:10480000019502986AE7C046FF07000001FCFFFF20
:10481000EC590000FFFF0F800DFCFFFF4A464946A0
:10482000170C1A0C1B041B0C08041900000C414344
:104830001500884619007D43794303958946290070
:10484000150045434D44029545462D0CAA46029D50
:104850005544A94506D98A46802149028946CA4459
:1048600051460391290C0491414609042D04090C79
:1048700088462900250C24044144240C059121007C
:1048800041438846210079438A4668434146504463
:104890008146080C48446F43824503D98021490270
:1048A00089464F44010C89463900494402914146EA
:1048B0000F0404993F0C88460004C0198044414607
:1048C000049159460F0C0904090C884659438A463D
:1048D00039005143894641464A435146090C8B46AB
:1048E0007B43D2185A44934203D980235B029B46F0
:1048F000D94451460904090C8A46414661437C4328
:10490000130C12044B445244A1468A463C004146D3
:104910006C434D4351464D440F0C7D19A94503D9B5
:104920008021490288464444049F0399B846414483
:104930008B468345804141428846514608042F04F6
:10494000000C3F185846029910188946904292412F
:104950004F44BA46524299469346C244D144CB444E
:104960008F42BF41C245894199459B419345924140
:104970007F4249422D0C52420F435B4213437F1941
:10498000FF185B463C19DB0D059A64021C43430289
:1049900013435D1EAB415A46C00D034352021343FD
:1049A000E20156D501205A0803401343E20713439E
:1049B00064085A48604400284DDD5A0709D00F2288
:1049C0001A40042A05D01A1D9A429B415B42E41802
:1049D0001300E20104D58020514AC0001440604415
:1049E000504A904200DDE3E60125DB0862071A43E6
:1049F0006402019B9146220B4405640D1D407CE638
:104A0000802259461203114208D0144206D1224393
:104A10001203120B45469946434C6EE65B461A4319
:104A20001203120B404C68E603005446283B9C409E
:104A30000023B9E600F0A6FC2030A6E60300283BE0
:104A40009F400023BB4699468AE600F09BFC20303D
:104A500074E6B446ADE701252A1A382A06DD019B23
:104A600000241D4000230022994646E61F2A21DC2F
:104A700020252000AD1A1E00AB40A840D6405D1E88
:104A8000AB4130431843D440430709D00F230340C0
:104A9000042B05D00300181D98429B415B42E4188B
:104AA000230221D50125019B01241D400023002262
:104AB000994622E61F2521006D42281AC1400800B0
:104AC000202A1DD05F35AA1A944023435C1EA341BF
:104AD000072503431D400022002D09D00F2200248A
:104AE0001A401800042AD6D1030065076402220B7D
:104AF000DB082B4301259946019B00241D40FCE562
:104B00000024E2E7802201251203224301991203C7
:104B1000120B0D409946044CEFE5C046FF03000020
:104B2000FFFFFFFEFE070000FF070000F0B546464E
:104B3000D6464F460C03C0B5CD0F4E00610A440F58
:104B40000C43C1005800400D84468A460F001903EB
:104B5000500F490A0143C648760DA846DB0FD20024
:104B6000844500D1D8E001204340AB4200D1A6E00B
:104B70006046351A002D00DC05E1002810D10B003D
:104B8000134300D1D7E06B1E002B00D04BE15346FE
:104B90009F1ABA458041641A4042241A01261EE039
:104BA000B34B9E4248D080231B041943382D00DDAF
:104BB00019E11F2D00DD4CE120230F005B1B1000CD
:104BC0009A409F40E840531E9A41E94007431743EB
:104BD0005346DF1B611ABA45A44164420C1B2302F1
:104BE00000D4C5E06402650A002D00D1F6E028007B
:104BF00000F0C8FB0300083B1F2B00DDE9E020228A
:104C00003C00D21A9D40D4409F4025439E4200DD87
:104C1000DBE09E1B731C1F2B00DD0AE12022380005
:104C2000D21A290097402C009140D8407A1E974113
:104C3000DC40002601430F437B0709D00F233B4094
:104C4000042B05D03B1DBB42BF417F42E4191F002E
:104C5000230225D5864B01369E4200D1AFE0854B1D
:104C600001251C4043466207FF086402760517438E
:104C7000240B760D1D4000212403230B0C0D7E4ACE
:104C800024051C431440330523435B00ED075B08F8
:104C90002B43380019001CBC90469946A246F0BD33
:104CA000012543466207FF081743E4081D40704B87
:104CB0009E4236D024037605240B760DDBE763464F
:104CC000F31A002B00DC94E06046002835D06848D9
:104CD0008642B1D080273F043943382B00DCFDE009
:104CE0000A43170000217A1E9741574457458041D7
:104CF000091944420C1923023AD55D4B01369E42F4
:104D000000D14BE101225B4B1C407B0817401F4345
:104D1000E207174364088FE70800104300D024E738
:104D200021E723003B4300D1B9E180221203144361
:104D30002403240B9FE72E007EE70800104300D1D8
:104D4000CAE0581E8446002800D0E7E0524452458D
:104D5000804164184042241817000126230207D519
:104D60000226CFE764462C4300D1B3E12C0067460E
:104D70007B0700D062E76307FF081F430125434616
:104D8000E4081D4093E7002D78D1751C6D056D0D6D
:104D9000012D00DCF2E05046801A8245BF41651AC1
:104DA0007F42ED1B8446280200D48CE05046171A3F
:104DB000BA4292410C1B5542651B984614E70125E7
:104DC000434600241D40002755E72A4CF61A2C4084
:104DD00032E73D0028388540002717E7380000F00B
:104DE000D1FA203006E70A43170000217A1E9741C6
:104DF000EEE6002B00D0E5E0731C9C465B055B0DE6
:104E0000012B00DC9FE01A4B9C4500D1C5E05244C9
:104E100052458041641840422418E707520817435E
:104E20006408664608E71248854200D185E01D0007
:104E3000BCE629001F3EF140202B00D17FE040223C
:104E4000D31A9D402F437D1EAF4100240F430026FF
:104E50008EE72B000F00203BDF40202D71D0402338
:104E60005D1BA9400A43511E8A4100211743AFE64A
:104E7000FF070000FFFF7FFFFFFF0F80002E3ED0E7
:104E8000B34EB44545D0802636046D423443382DA8
:104E900000DDA8E01F2D00DD1FE120262700504681
:104EA000761BB740E84007435046B040461EB0412D
:104EB000EC403843171ABA4292410C1B5242A41AD2
:104EC000664698468BE6644667462C4300D08BE6E0
:104ED000002500260027EAE61E00ADE61F2B60DC59
:104EE0002027F81A0F00844687401000D840074357
:104EF00060468240501E8241D9401743F5E62600A5
:104F00005046064305D0ED43002DD3D0904EB44516
:104F1000BDD10C001700664698468DE68C4883424A
:104F20000BD06346D9E6002D00D096E00800104370
:104F300000D1E2E00C0017009846854E7CE6002583
:104F400080E700218EE7230050460343002E00D067
:104F5000A8E0002B00D1DEE00B00134300D16BE68C
:104F600052445245804164184042241817002302DD
:104F700000D4FDE6774B66461C405DE625005046B2
:104F80000543002ECFD1002D4FD10C00144300D18A
:104F9000A0E00C00170098464EE666460024002765
:104FA00085E61F000800203FF8400700202B00D1B5
:104FB0008EE04020C31A99400A43511E8A410021C5
:104FC000174392E6002E14D126005046064362D0C5
:104FD000DB43002B5CD18718974292416418524200
:104FE000A418664687E650462043441EA04100248C
:104FF00060E7574EB4454ED0802636045B423443BA
:10500000382B00DD7FE01F2B00DD8BE02026270002
:105010005046F61AB740D84007435046B040461EA7
:10502000B0410743DC40BF18D6E70D00154300D15F
:1050300002E65046801A8245BF41651A7F42ED1B49
:105040008446280200D48DE65046171ABA4292418F
:105050000C1B5242A41A9846EEE50D00154300D1F0
:105060006BE750466707C00807438020E408000349
:10507000044207D0CD08054204D12C009846D70839
:1050800049070F437B0FE4001C43FF00304ED3E57C
:105090002F4EB445B4D10C0017006646CCE500276E
:1050A0000024E8E5002B39D00B00134300D144E77E
:1050B000C008670707438020E40800030442E1D0EA
:1050C000CB080342DED1D70849070F431C00D9E7BC
:1050D000002171E700250027E9E52E002700203E8A
:1050E000F740202D2FD04026751BAC405046204362
:1050F000441EA04100243843DCE68024002524031C
:10510000134E0027D3E5504620430700781E874101
:105110000024BF1860E70C0017008DE50C00170095
:105120000B4E89E51E002700203EF740202B0CD0B7
:105130004026F31A9C4050462043441EA04107439A
:105140000024BF1848E70024D0E70024F3E7C04656
:10515000FF070000FFFF7FFF4100090E4B1C70B5E9
:10516000DBB24602750AC40F012B14DDE0239B005D
:105170006D07360BCB1800210A0D280012051C4DB7
:1051800032435B052A405B0813435B00E4075B087E
:105190002343190070BD002914D1002D1ED0280012
:1051A00000F0F0F80A281CDC0B232A001B1ADA4056
:1051B000030015339D400F4B12031B1A5B05160BA2
:1051C0005B0DD8E7002D06D0320B802636036D0725
:1051D0001643094BCFE7084B0026CCE700230026F7
:1051E000C9E703002A000B3B9A400025E3E7C046CD
:1051F000FFFF0F8089030000FF070000F0B54C009F
:10520000640D0B03621C450F5B0A52052B43C90F4B
:10521000C500520D012A28DD3A4AA618FE2E1BDCD5
:10522000002E3EDD80010200501E82416D0F2A4398
:10523000DB0013435A0704D00F221A40042A00D07F
:1052400004338022D2041A405AD00136FF2E03D0F4
:105250009B015B0AF4B201E0FF2400235802E4053D
:10526000400AC90720430843F0BD002C07D01D4366
:10527000F2D08020DB0080040343FF26DAE72B43D3
:1052800003D00523DB08FF2C03D05B025B0AE4B2EA
:10529000E4E7002B32D08020C00303435B025B0AAB
:1052A000DCE73200173214DB80221E27120413437E
:1052B000BF1B1F2F0FDC144A944664442A00A540EC
:1052C0002E00A340751EAE41FA403343134300261F
:1052D000B0E70024D5E702225242961B1A00F240A2
:1052E000202F09D0094884466444A3402B435D1E07
:1052F000AB41002613439DE70023F7E70023ADE70A
:105300003400BFE780FCFFFF82FCFFFFA2FCFFFF31
:105310008446081C6146FFE71FB500F0B3F900287A
:1053200001D40021C8421FBD10B500F045F940422C
:10533000013010BD10B500F0A5F9002801DB0020F8
:1053400010BD012010BDC04610B500F09BF900282B
:1053500001DD002010BD012010BDC04610B500F0D9
:1053600051F9002801DC002010BD012010BDC0460D
:1053700010B500F047F9002801DA002010BD012027
:1053800010BDC0461C2101231B04984201D3000C10
:1053900010391B0A984201D3000A08391B099842A8
:1053A00001D30009043902A2105C40187047C046BE
:1053B00004030202010101010000000000000000DE
:1053C000414208401C2101231B04984201D3000CD8
:1053D00010391B0A984201D3000A08391B09984268
:1053E00001D30009043902A2105C401A7047C0467C
:1053F0001B1C1D1D1E1E1E1E1F1F1F1F1F1F1F1FCC
:10540000F0B54E465746DE464546E0B5060000205C
:105410000F0083B019008146002F00DA8CE00029CC
:1054200000DA80E034003D0092469846BB4269D8DD
:1054300066D04146504600F067F983463900300097
:1054400000F062F95B461B1A9C46203B9B4600D548
:1054500087E05146584681400B00514660468140E6
:105460000A00BB4200D972E06ED034003D005946BC
:10547000A41A9D41002900DA8AE0002100200126BB
:105480000090019159468E400196614601268E405A
:1054900061460096002961D0D90756080E435F087F
:1054A0006146012200230CE0AF4201D1A6420AD896
:1054B000A41BBD4124196D410139A4185D41002987
:1054C00006D0AF42F0D9013924196D410029F8D135
:1054D0005B460098019900196941002B4DDB2E00B5
:1054E000DE4063462C00DC405B46002B5BDB340077
:1054F0009C4023006446A6403200801A994103E094
:10550000B24296D9002000214B46002B04D0030064
:105510000C0000215842A14103B03CBC9046994682
:10552000A246AB46F0BD4946C94310008946190062
:10553000002342428B4175E734003D0001380027CB
:105540006642AF4181466AE7B14200D88DE700214B
:10555000002000900191614600299DD10098019999
:10556000D2E7624640462023514690409B1AD940DC
:105570000300009100990B436FE7624620239B1ABA
:105580002A009A40260013006246D6401E43A8E730
:10559000614620260127761A00200021F74000905E
:1055A0000191019771E762462023350094409B1AD0
:1055B000DD4023002B439DE770B5420045024E02BB
:1055C0004C00C30F6D0A120E760A240EC90F01207B
:1055D000FF2A06D0FF2C03D0A24201D1B54206D04B
:1055E00070BD002DFCD1FF2CFAD1002EF8D18B42DA
:1055F00006D00120002AF3D12800451EA841EFE77C
:105600000020EDE7F0B5420045024C02C30F480010
:105610006D0A120E640A000EC90FFF2A1ED0FF2861
:1056200021D0002A0AD16E426E41F6B200280FD175
:10563000002C0DD10020002D09D005E0002801D15B
:10564000002C01D08B4211D0012158420843F0BDFB
:10565000002EF7D0012001390843F8E7002DDED0F5
:1056600002204042F3E7002CDBD0F9E78242EBDC7A
:1056700004DBA542E8D80020A542E8D20121581E4B
:105680000843E4E7F0B542004D024C004602760ABA
:10569000120EC30F6D0A240EC90FFF2A16D0FF2C5D
:1056A00018D0002A0AD170427041C0B2002C15D027
:1056B000002805D0012001390843F0BD002C13D08B
:1056C000994214D001205B421843F6E70220002ED5
:1056D000F3D1E4E70220002DEFD1E2E7002DE7D17E
:1056E0000020002EE9D0EDE7002DE9D1EAE7A24243
:1056F00006DCDFDBAE4203D80020AE42DAD3DCE7C3
:10570000012049420843D8E710B5002903D1FFF72B
:1057100039FE203002E0081CFFF734FE10BDC04601
:1057200070B500260C4D0D4C641BA410A64209D187
:10573000002600F07BF90A4D0A4C641BA410A64217
:1057400005D170BDB300EB5898470136EEE7B300C2
:10575000EB5898470136F2E7385A0000385A0000F3
:10576000385A00003C5A00002E2E2F6164632F68C7
:10577000616C5F6164635F6173796E632E630000C7
:105780000002020000000003000000000100000011
:105790000100000000000000000000002E2E2F611C
:1057A00064632F68706C5F6164632E6300000000A7
:1057B000000019004E008000A700C900EF00110191
:1057C000330152016C0185019801AA01BE01D1018A
:1057D000014F12064C24200F000408303179303874
:1057E00021487F437871494901180118243F4179C4
:1057F000497F7F377F7E777E7F7F3F3F3F3F3F7F81
:105800003F3F3F737F5E7F7F3F3F6D7F737F575B7F
:105810007F3F7B3B3F6D7F767A5255767F3F7F009F
:1058200003000C003000C0000003000C003000C07A
:105830002E2E2F68616C2F7372632F68616C5F610D
:10584000635F6173796E632E630000002E2E2F68F4
:10585000616C2F7372632F68616C5F6461635F7347
:10586000796E632E630000002E2E2F68616C2F73FB
:1058700072632F68616C5F666C6173682E630000F1
:105880002E2E2F68616C2F7574696C732F73726381
:105890002F7574696C735F72696E67627566666591
:1058A000722E6300004400421800000062070000EE
:1058B00062170000000000002E2E2F68706C2F6110
:1058C000632F68706C5F61632E6300002E2E2F685B
:1058D000706C2F6461632F68706C5F6461632E630A
:1058E00000000000000000001000000001000000A7
:1058F0001100000005000000150000000E0000006F
:105900000E0000002E2E2F68706C2F6569632F68C3
:10591000706C5F6569632E63000000000000010089
:10592000020003000400050006000700080009004B
:105930000A000B000C010D000E000F0010001100FA
:1059400012001300140015001600170118001900AA
:105950001A001B001C001D001E00000000002C028D
:10596000010000000200000003000000040000002D
:10597000050000000600000007000000080000000D
:10598000090000000A0000000B0000002E2E2F6806
:10599000706C2F6E766D6374726C2F68706C5F6EB6
:1059A000766D6374726C2E6300000000F43A0000A0
:1059B000443A0000443A0000423A0000E63A00004F
:1059C000E63A0000DC3A0000423A0000E63A000005
:1059D000DC3A0000E63A0000423A0000EC3A0000EF
:1059E000EC3A0000EC3A00007C3B00001C48000050
:1059F000DC460000DC460000D8460000F44700000A
:105A0000F4470000E6470000D8460000F4470000D5
:105A1000E6470000F4470000D8460000FC470000BD
:105A2000FC470000FC470000004A0000F8B5C046F3
:105A3000F8BC08BC9E467047DD000000F8B5C046C3
:0C5A4000F8BC08BC9E467047B500000092
:085A4C00B4F9FF7F0100000026
:105A5400090000027F7F7F7F7F7F7F7F010001003D
:105A64000100000000000000D0070000000000005A
:105A74000000000000000000204E000000000000B4
:105A8400A00F00000000000007000000000000005C
:105A940005000000000000000000000000000000FD
:105AA40000E45700000000000000000000000000B7
:105AB40000E45700000000000000000000000000A7
:105AC40000000000000000000000000000000000D2
:105AD4000000000000000000F4A803000000FF0024
